S01900006275696C642F534D5F526F7665725F56312E73726563D9
S3150000C0000070002011C4000059C4000059C400008B
S3150000C01059C4000059C4000059C4000000000000C3
S3150000C02000000000000000000000000059C40000ED
S3150000C03059C400000000000059C40000ED320100A0
S3150000C0404DF3000057F3000061F300006BF30000AE
S3150000C05075F300007FF3000089F3000093F30000FE
S3150000C0609DF30000A7F30000B1F30000BBF300004E
S3150000C070C5F30000CFF30000D9F30000E3F300009E
S3150000C080EDF3000059C4000059C4000059C4000073
S3150000C09059C4000059C4000059C4000059C4000026
S3150000C0A07F2101008921010059C4000059C4000004
S3150000C0B059C4000059C4000059C4000059C4000006
S3150000C0C059C4000059C4000059C4000059C40000F6
S3150000C0D059C4000059C4000059C4000059C40000E6
S3150000C0E059C4000059C4000059C4000059C40000D6
S3150000C0F059C4000059C4000059C4000059C40000C6
S3150000C10059C4000059C4000059C4000059C40000B5
S3150000C11059C4000059C4000059C4000059C40000A5
S3150000C12059C4000059C400004936010059C4000032
S3150000C13059C4000059C4000059C4000059C4000085
S3150000C14059C4000059C4000059C4000059C4000075
S3150000C15059C4000059C4000059C4000059C4000065
S3150000C16059C4000059C4000059C4000059C4000055
S3150000C17059C4000059C40000E5FD0000EFFD0000B1
S3150000C180F9FD000003FE00000DFE000059C400008A
S3150000C19059C4000017FE000021FE000059C400002B
S3150000C1A02BFE000059C4000059C4000059C4000009
S3150000C1B035FE00003FFE000059C4000049FE0000A5
S3150000C1C059C4000059C4000059C40000A108010068
S3150000C1D0AD080100B9080100C508010059C40000F6
S3150000C1E059C40000D1080100DD080100E90801007A
S3150000C1F0F508010059C4000059C4000001090100F6
S3150000C2000D090100190901002509010059C40000A2
S3150000C210F93B0100310901003D090100490901000E
S3150000C2205509010059C4000059C4000059C4000052
S3150000C23059C4000059C4000059C4000059C4000084
S3150000C24059C4000059C4000059C4000059C4000074
S3150000C25059C4000059C4000059C4000059C4000064
S3150000C26059C4000059C4000059C4000059C4000054
S3150000C27059C4000059C4000059C4000059C4000044
S3150000C28059C4000059C4000059C4000059C4000034
S3150000C29059C4000059C4000059C4000059C4000024
S3150000C2A059C4000059C4000059C4000059C4000014
S3150000C2B059C4000059C4000059C4000059C4000004
S3150000C2C059C4000059C4000059C4000059C40000F4
S3150000C2D059C4000059C4000059C4000059C40000E4
S3150000C2E059C4000059C4000059C4000059C40000D4
S3150000C2F059C4000059C4000059C4000059C40000C4
S3150000C30059C4000059C4000059C4000059C40000B3
S3150000C31059C4000059C4000059C4000059C40000A3
S3150000C32059C4000059C4000059C4000059C4000093
S3150000C33059C4000059C4000059C4000059C4000083
S3150000C34059C4000059C4000059C4000059C4000073
S3150000C35059C4000059C4000059C4000059C4000063
S3150000C36059C4000059C4000059C4000059C4000053
S3150000C37059C4000059C4000059C4000059C4000043
S3150000C38059C4000059C4000059C4000059C4000033
S3150000C39059C4000059C4000059C4000059C4000023
S3150000C3A059C4000059C4000059C4000059C4000013
S3150000C3B059C4000059C4000059C4000059C4000003
S3150000C3C059C4000059C4000059C4000059C40000F3
S3150000C3D059C4000059C4000059C4000059C40000E3
S3150000C3E059C4000059C4000059C4000059C40000D3
S3150000C3F059C4000059C4000059C40000FFFFFFFFE4
S3150000C400FFFFFFFFFFFFFFFFFFFFFFFFFE7FFFFFB7
S3150000C41072B64FF000014FF000024FF000034FF0EC
S3150000C42000044FF000054FF000064FF00007B84635
S3150000C430B946BA46BB46BC460448854604488047CA
S3150000C4400448804762B608F039FEFEE70070002017
S3150000C450B9D200000DD30000FFF7FEBF81F0004106
S3150000C46002E000BF83F0004330B54FEA41044FEAD3
S3150000C470430594EA050F08BF90EA020F1FBF54EA6E
S3150000C480000C55EA020C7FEA645C7FEA655C00F00A
S3150000C490E2804FEA5454D4EB5555B8BF6D420CDDDB
S3150000C4A02C4480EA020281EA030382EA000083EA5E
S3150000C4B0010180EA020281EA0303362D88BF30BDFE
S3150000C4C011F0004F4FEA01314FF4801C4CEA113154
S3150000C4D002D0404261EB410113F0004F4FEA0333B3
S3150000C4E04CEA133302D0524263EB430394EA050F3E
S3150000C4F000F0A780A4F10104D5F1200E0DDB02FAAD
S3150000C5000EFC22FA05F2801841F1000103FA0EF240
S3150000C510801843FA05F359410EE0A5F120050EF106
S3150000C520200E012A03FA0EFC28BF4CF0020C43FA37
S3150000C53005F3C01851EBE37101F0004507D54FF044
S3150000C540000EDCF1000C7EEB00006EEB0101B1F594
S3150000C550801F1BD3B1F5001F0CD349085FEA3000DA
S3150000C5604FEA3C0C04F101044FEA445212F5800FE5
S3150000C57080F09A80BCF1004F08BF5FEA500C50F182
S3150000C580000041EB045141EA050130BD5FEA4C0C65
S3150000C590404141EB010111F4801FA4F10104E9D1EE
S3150000C5A091F0000F04BF01460020B1FA81F308BFE5
S3150000C5B02033A3F10B03B3F120020CDA0C3208DDB1
S3150000C5C002F1140CC2F10C0201FA0CF021FA02F18C
S3150000C5D00CE002F11402D8BFC2F1200C01FA02F1FC
S3150000C5E020FA0CFCDCBF41EA0C019040E41AA2BF21
S3150000C5F001EB0451294330BD6FEA04041F3C1CDAE9
S3150000C6000C340EDC04F11404C4F1200220FA04F008
S3150000C61001FA02F340EA030021FA04F345EA0301B2
S3150000C62030BDC4F10C04C4F1200220FA02F001FA74
S3150000C63004F340EA0300294630BD21FA04F02946F6
S3150000C64030BD94F0000F83F4801306BF81F480118F
S3150000C6500134013D4EE77FEA645C18BF7FEA655C02
S3150000C66029D094EA050F08BF90EA020F05D054EAD4
S3150000C670000C04BF1946104630BD91EA030F1EBFD9
S3150000C6800021002030BD5FEA545C05D140004941DD
S3150000C69028BF41F0004130BD14F580043CBF01F5D0
S3150000C6A0801130BD01F0004545F0FE4141F47001B6
S3150000C6B04FF0000030BD7FEA645C1ABF1946104691
S3150000C6C07FEA655C1CBF0B46024650EA013406BF92
S3150000C6D052EA033591EA030F41F4002130BD00BF51
S3150000C6E090F0000F04BF0021704730B54FF480640E
S3150000C6F004F132044FF000054FF0000150E700BF8F
S3150000C70090F0000F04BF0021704730B54FF48064ED
S3150000C71004F1320410F0004548BF40424FF00001DA
S3150000C7203EE700BF42004FEAE2014FEA31014FEA1D
S3150000C73002701FBF12F07F4393F07F4F81F060516C
S3150000C740704732F07F4208BF704793F07F4F04BFB7
S3150000C75041F40021704730B54FF4607401F0004594
S3150000C76021F000411CE700BF50EA010208BF7047F4
S3150000C77030B54FF000050AE050EA010208BF7047E5
S3150000C78030B511F0004502D5404261EB41014FF44E
S3150000C790806404F132045FEA915C3FF4D8AE4FF056
S3150000C7A003025FEADC0C18BF03325FEADC0C18BF39
S3150000C7B0033202EBDC02C2F1200300FA03FC20FA8A
S3150000C7C002F001FA03FE40EA0E0021FA02F11444D7
S3150000C7D0BDE600BF70B54FF0FF0C4CF4E06C1CEAF0
S3150000C7E011541DBF1CEA135594EA0C0F95EA0C0F61
S3150000C7F000F0DEF82C4481EA030621EA4C5123EAD4
S3150000C8004C5350EA013518BF52EA033541F4801102
S3150000C81043F4801338D0A0FB02CE4FF00005E1FBB5
S3150000C82002E506F00042E0FB03E54FF00006E1FBFF
S3150000C83003569CF0000F18BF4EF0010EA4F1FF0442
S3150000C840B6F5007F64F5407404D25FEA4E0E6D4182
S3150000C85046EB060642EAC62141EA55514FEAC52093
S3150000C86040EA5E504FEACE2EB4F1FD0C88BFBCF50F
S3150000C870E06F1ED8BEF1004F08BF5FEA500E50F1C0
S3150000C880000041EB045170BD06F0004646EA010186
S3150000C89040EA020081EA0301B4EB5C04C2BFD4EBB8
S3150000C8A00C0541EA045170BD41F480114FF0000EB1
S3150000C8B0013C00F3AB8014F1360FDEBF002001F01F
S3150000C8C0004170BDC4F10004203C35DA0C341BDC99
S3150000C8D004F11404C4F1200500FA05F320FA04F06B
S3150000C8E001FA05F240EA020001F0004221F000419F
S3150000C8F010EBD37021FA04F642EB06015EEA430E12
S3150000C90008BF20EAD37070BDC4F10C04C4F1200541
S3150000C91000FA04F320FA05F001FA04F240EA0200F4
S3150000C92001F0004110EBD37041F100015EEA430EC5
S3150000C93008BF20EAD37070BDC4F1200500FA05F2E5
S3150000C9404EEA020E20FA04F301FA05F243EA020364
S3150000C95021FA04F001F0004121FA04F220EA020073
S3150000C96000EBD3705EEA430E08BF20EAD37070BDB9
S3150000C97094F0000F0FD101F00046400041EB010199
S3150000C98011F4801F08BF013CF7D041EA060195F07B
S3150000C990000F18BF704703F00046520043EB030335
S3150000C9A013F4801F08BF013DF7D043EA0603704722
S3150000C9B094EA0C0F0CEA135518BF95EA0C0F0CD02D
S3150000C9C050EA410618BF52EA4306D1D181EA030173
S3150000C9D001F000414FF0000070BD50EA410606BF6D
S3150000C9E01046194652EA430619D094EA0C0F02D1B2
S3150000C9F050EA013613D195EA0C0F05D152EA0336F7
S3150000CA001CBF104619460AD181EA030101F0004114
S3150000CA1041F0FE4141F470014FF0000070BD41F05D
S3150000CA20FE4141F4780170BD70B54FF0FF0C4CF437
S3150000CA30E06C1CEA11541DBF1CEA135594EA0C0F56
S3150000CA4095EA0C0F00F0A7F8A4EB050481EA030EA3
S3150000CA5052EA03354FEA013100F088804FEA03338A
S3150000CA604FF0805545EA131343EA12634FEA022258
S3150000CA7045EA111545EA10654FEA00260EF0004119
S3150000CA809D4208BF964244F1FD0404F5407402D26B
S3150000CA905B084FEA3202B61A65EB03055B084FEAFC
S3150000CAA032024FF480104FF4002CB6EB020E75EBF9
S3150000CAB0030E22BFB61A754640EA0C005B084FEA21
S3150000CAC03202B6EB020E75EB030E22BFB61A75469E
S3150000CAD040EA5C005B084FEA3202B6EB020E75EBE9
S3150000CAE0030E22BFB61A754640EA9C005B084FEA61
S3150000CAF03202B6EB020E75EB030E22BFB61A75466E
S3150000CB0040EADC0055EA060E18D04FEA051545EA5C
S3150000CB1016754FEA06164FEAC30343EA52734FEA05
S3150000CB20C2025FEA1C1CC0D111F4801F0BD141EA7E
S3150000CB3000014FF000004FF0004CB6E711F4801FE3
S3150000CB4004BF01430020B4F1FD0C88BFBCF5E06FC3
S3150000CB503FF6AFAEB5EB030C04BFB6EB020C5FEAD3
S3150000CB60500C50F1000041EB045170BD0EF0004E28
S3150000CB704EEA113114EB5C04C2BFD4EB0C0541EA5A
S3150000CB80045170BD41F480114FF0000E013C90E657
S3150000CB9045EA060E8DE60CEA135594EA0C0F08BF1B
S3150000CBA095EA0C0F3FF43BAF94EA0C0F0AD150EA1A
S3150000CBB001347FF434AF95EA0C0F7FF425AF1046AD
S3150000CBC019462CE795EA0C0F06D152EA03353FF4D5
S3150000CBD0FDAE1046194622E750EA410618BF52EA52
S3150000CBE043067FF4C5AE50EA41047FF40DAF52EA26
S3150000CBF043057FF4EBAE12E74FF0FF3C06E000BFC3
S3150000CC004FF0010C02E000BF4FF0010C4DF804CDCF
S3150000CC104FEA410C7FEA6C5C4FEA430C18BF7FEA8F
S3150000CC206C5C1BD001B050EA410C0CBF52EA430CBD
S3150000CC3091EA030F02BF90EA020F0020704710F13D
S3150000CC40000F91EA030F58BF994208BF90422CBFCC
S3150000CC50D8176FEAE37040F0010070474FEA410CC5
S3150000CC607FEA6C5C02D150EA013C07D14FEA430CE3
S3150000CC707FEA6C5CD6D152EA033CD3D05DF8040B54
S3150000CC80704700BF8446104662468C461946634686
S3150000CC9000E000BF01B5FFF7B7FF002848BF10F15D
S3150000CCA0000F01BD4DF808EDFFF7F4FF0CBF0120A2
S3150000CCB000205DF808FB00BF4DF808EDFFF7EAFF1E
S3150000CCC034BF012000205DF808FB00BF4DF808EDD9
S3150000CCD0FFF7E0FF94BF012000205DF808FB00BFCE
S3150000CCE04DF808EDFFF7CEFF94BF012000205DF858
S3150000CCF008FB00BF4DF808EDFFF7C4FF34BF012065
S3150000CD0000205DF808FB00BF4FEA410C7FEA6C5C2F
S3150000CD1002D150EA013C0AD14FEA430C7FEA6C5C2F
S3150000CD2002D152EA033C02D14FF0000070474FF0A7
S3150000CD30010070474FEA410212F5001215D211D5D3
S3150000CD406FF47873B3EB625212D94FEAC12343F002
S3150000CD50004343EA505311F0004F23FA02F018BF84
S3150000CD60404270474FF00000704750EA013005D14D
S3150000CD7011F0004008BF6FF0004070474FF0000010
S3150000CD80704700BF4A0011D212F5001211D20DD51C
S3150000CD906FF47873B3EB62520ED44FEAC12343F0BB
S3150000CDA0004343EA505323FA02F070474FF0000065
S3150000CDB0704750EA013002D14FF0FF3070474FF014
S3150000CDC0000070474FEA4102B2F1E04324BFB3F5D9
S3150000CDD0001CDCF1FE5C0DD901F0004C4FEAC002EC
S3150000CDE04CEA5070B2F1004F40EB830008BF20F0D0
S3150000CDF00100704711F0804F21D113F13872BCBF8A
S3150000CE0001F00040704741F480114FEA5252C2F1DE
S3150000CE101802C2F1200C10FA0CF320FA02F018BF27
S3150000CE2040F001004FEAC1234FEAD32303FA0CFC7A
S3150000CE3040EA0C0023FA02F34FEA4303CCE77FEA09
S3150000CE40625307D150EA01331EBF4FF0FE4040F453
S3150000CE504000704701F0004040F0FE4040F4000002
S3150000CE60704700BF53B94AB9002908BF00281CBF44
S3150000CE704FF0FF314FF0FF3000F07EB9ADF1080CF6
S3150000CE806DE904CE00F006F8DDF804E0DDE90223E2
S3150000CE9004B070472DE9F047089D04468E46002BE6
S3150000CEA04ED18A4294466DD9B2FA82F757B1C7F18C
S3150000CEB0200EB94020FA0EFE02FA07FC4EEA010ED9
S3150000CEC000FA07F44FEA1C49210CBEFBF9F61FFADB
S3150000CED08CF809FB16EE41EA0E4106FB08F38B427D
S3150000CEE00AD91CEB010106F1FF3280F027818B4243
S3150000CEF040F22481023E6144C91AA4B2B1FBF9F0A2
S3150000CF0009FB101144EA014400FB08F8A0450AD9C0
S3150000CF101CEB040400F1FF3380F00E81A04540F2C3
S3150000CF200B810238644440EA0640A4EB080400265C
S3150000CF307DB1FC4000232C606B603146BDE8F08774
S3150000CF408B4209D9002D00F01481002685E80300E4
S3150000CF5030463146BDE8F087B3FA83F6002E40F03E
S3150000CF6090808B4202D3824200F2FD80841A61EBEC
S3150000CF70030101208E46002DEBD085E81040314696
S3150000CF80BDE8F0871AB94FF0010CBCFBF2FCBCFA05
S3150000CF908CF7A7BBA1EB0C034FEA1C421FFA8CF8D7
S3150000CFA00126B3FBF2FE210C02FB1E3341EA0341CC
S3150000CFB008FB0EF38B4208D91CEB01010EF1FF3082
S3150000CFC002D28B4200F2D1808646C91AA3B2B1FBC7
S3150000CFD0F2F002FB101143EA014408FB00F8A045F9
S3150000CFE008D91CEB040400F1FF3302D2A04500F27D
S3150000CFF0B7801846A4EB080440EA0E4098E7C7F14C
S3150000D000200301FA07F40CFA07FC20FA03FED940C4
S3150000D0104FEA1C424EEA040EB1FBF2F64FEA1E43FB
S3150000D02002FB16111FFA8CF843EA014306FB08F1CE
S3150000D030994200FA07F40AD91CEB030306F1FF3004
S3150000D04080F08C80994240F28980023E63445B1AEC
S3150000D0501FFA8EF1B3FBF2F002FB103341EA0341F3
S3150000D06000FB08F38B4208D91CEB010100F1FF3EDF
S3150000D07070D28B426ED902386144CB1A40EA06461A
S3150000D0808FE7C6F1200722FA07F8B34001FA06F443
S3150000D09048EA030320FA07FC4FEA134EF9404CEA2C
S3150000D0A0040CB1FBFEF94FEA1C440EFB19111FFAE2
S3150000D0B083F844EA014109FB08F48C4202FA06F2BD
S3150000D0C000FA06FA08D9591809F1FF3044D28C4201
S3150000D0D042D9A9F102091944091B1FFA8CFCB1FBBC
S3150000D0E0FEF00EFB10114CEA014400FB08F8A045C7
S3150000D0F007D91C1900F1FF312AD2A04528D90238D8
S3150000D1001C4440EA0940A4EB0804A0FB02894C45F4
S3150000D110C446494616D313D055B1BAEB0C0364EB9B
S3150000D120010404FA07F7F3401F43F4402F606C60D4
S3150000D13000263146BDE8F0871846F4E61646DBE6DB
S3150000D140C245E9D2B8EB020C69EB03010138E3E70B
S3150000D1500846D6E7704690E78146BDE7064676E77D
S3150000D1600238644446E7304605E7AEF1020E6144F4
S3150000D1702BE72E462846ECE6704700BF10F8012B39
S3150000D18011F8013B012A28BF9A42F7D0D01A7047FE
S3150000D190034613F8012B002AFBD1181A01387047F1
S3150000D1A001F0FF01102A2BDB10F0070F08D010F852
S3150000D1B0013B013A8B422DD010F0070F42B3F6D156
S3150000D1C0F0B441EA012141EA014122F007047FF06F
S3150000D1D000070023F0E80256083C85EA010586EAC6
S3150000D1E0010685FA47F5A3FA87F586FA47F6A5FA02
S3150000D1F087F68EB9EED1F0BC01F0FF0102F007020E
S3150000D20032B110F8013B013A83EA010313B1F8D1B8
S3150000D2100020704701387047002D06BF3546033899
S3150000D220073815F0010F07D1013015F4807F02BFD2
S3150000D230013015F4C03F0130F0BC0138704700BF23
S3150000D24038B50022002304460D46FFF735FD28B900
S3150000D25020462946BDE8384000F00AB8204605F1C8
S3150000D260004100F005F8404261EB410138BD00BFC6
S3150000D270D0B500220E4B06460F46FFF7ABFAFFF776
S3150000D28081FD0446FFF72CFA00220A4BFFF7A2FAAB
S3150000D29002460B4630463946FFF7E4F8FFF772FDC3
S3150000D2A02346002242EA000210461946D0BD00BFBE
S3150000D2B00000F03D0000F0414FF0E023D3F8882D48
S3150000D2C042F47002C3F8882DD3F8342F22F080423E
S3150000D2D0C3F8342F054B064A5A605A6842F22012A8
S3150000D2E01A604FF6FF729A60704700BF0020054033
S3150000D2F020C528D94FF0E021D1F80C2D92B2024B6F
S3150000D3001343C1F80C3D70470400FA05264B274A23
S3150000D3109A4208D013462448254A13F8011B02F8FE
S3150000D320011B9842F9D1234B234A9A4208D013464F
S3150000D3302048224A13F8011B02F8011B8342F9D147
S3150000D3401F4B204A9A4206D0134600211C4A03F876
S3150000D350011B9342FBD11C4B1C4A9A4208D0134630
S3150000D36019481B4A13F8011B02F8011B8342F9D125
S3150000D370184B194A9A4212D010B4184CA40808D077
S3150000D3801946002351F8040B42F8040B0133A3425B
S3150000D390F8D1134B104A1A605DF8044B7047104BD6
S3150000D3A00C4A1A60704700BF846502005C55020093
S3150000D3B00084FF1FBC650200846502002894FF1FDD
S3150000D3C09811002000000020BC650200BC65020028
S3150000D3D00000002000C000000080FF1F00040000C5
S3150000D3E008ED00E0074B5B69DBB2042B06D0802B0F
S3150000D3F006D0012B0CBF0120042070470220704785
S3150000D4000320704700E00740044BD3F8003113F0C7
S3150000D410807F1ABF024B1868002070470040064004
S3150000D4202000002010B584B00B46002938D0444AAD
S3150000D430D2F8002112F0007F7DD1414AD2F80011C6
S3150000D44021F40001C2F800114FF08061C2F800110A
S3150000D45000213C4A1160002870D05A7A120202F468
S3150000D460E062197A01F007010A433548C0F8042141
S3150000D470DA79120102F030029979C90001F0080147
S3150000D4800A435979890001F004010A43C0F80821CA
S3150000D4901A79012A2FD0CAB1022A38D000BEFEE777
S3150000D4A000238DF804308DF80C3001228DF8082009
S3150000D4B08DF809208DF805208DF8063002238DF8A9
S3150000D4C0073004AB204A43F8102DB0E71A7B002A38
S3150000D4D014BF4FF40002002242F001021849C1F8BD
S3150000D4E000211A68174B1A60184CFFF78DFFE8B930
S3150000D4F0D4B1013CF9E71A7B002A14BF4FF40002AD
S3150000D500002242F001120E49C1F80021E9E71A7B18
S3150000D510002A14BF4FF403024FF4403242F00102D6
S3150000D5200749C1F80021DCE7032005E0002C14BF01
S3150000D5300020032000E0022004B010BD0020FBE71D
S3150000D540004006402000002000127A0088E73000E4
S3150000D550084BD3F8003213F0807F09D0054BD3F87F
S3150000D560083203F00103002B034808BF0020704770
S3150000D570002070470040064000127A0010B582B0C5
S3150000D5800B46002938D02D4AD2F8002212F0007F2F
S3150000D5904FD12A4AD2F8001221F40001C2F8001233
S3150000D5A00021C2F80012002846D09A78120202F42E
S3150000D5B0E062597801F007010A432049C1F80422C4
S3150000D5C01A7802F00102C1F8082259799A791B7972
S3150000D5D0002B14BF03230123002914BF04210021BB
S3150000D5E00B43002A14BF4FF4000200221343134AD0
S3150000D5F0C2F80032642410E000238DF804300122C2
S3150000D6008DF805208DF806308DF801208DF8022062
S3150000D61002AB03F8082DB6E7013CFFF799FF18B9EE
S3150000D620002CF9D1032005E0002C14BF00200320B4
S3150000D63000E0022002B010BD0020FBE700400640DB
S3150000D640054BD3F8003313F0807F1DBF024BD3F890
S3150000D650083302480020704700400640006CDC0298
S3150000D66010B582B00B46002932D0294AD2F80023E1
S3150000D67012F0007F47D1264AD2F8001321F40001A8
S3150000D680C2F800134FF08061C2F8001300283DD0A5
S3150000D6909A78120202F4E062597801F007010A430F
S3150000D6A01B49C1F804231A7802F00302C1F80823C3
S3150000D6B09A795B79002B14BF01230923002A14BF32
S3150000D6C04FF4000200221343C1F8003364240EE035
S3150000D6D001238DF8053000228DF806208DF80130E3
S3150000D6E08DF8023002AB03F8082DBEE7013CFFF7C8
S3150000D6F0A7FF18B9002CF9D1032005E0002C14BFB0
S3150000D7000020032000E0022002B010BD0020FBE74D
S3150000D7100040064008B50F4BD3F8003613F0807F63
S3150000D72002D10023184608BDFFF76EFE0346002807
S3150000D730F8D00849D1F80826C2F302220132B0FB1C
S3150000D740F2F3D1F80826C2F30442103203FB02F3C7
S3150000D7505B08E7E70040064010B584B00C4689B97F
S3150000D76000238DF804308DF80B3001228DF8082047
S3150000D7708DF809208DF8053007228DF806208DF8E2
S3150000D780073001AC3D4BD3F8003613F0007F71D162
S3150000D7903A4BD3F8002622F40002C3F800264FF0D5
S3150000D7A08062C3F80026002866D0FFF72DFE0346E8
S3150000D7B008B900BEFEE760780130B3FBF0F0A0F5D3
S3150000D7C0F400A0F590502E4B984201D900BEFEE71A
S3150000D7D063791B0203F4E063227902F00702134324
S3150000D7E02649C1F8043663781B0203F4E063A27885
S3150000D7F0120402F4F8121343C1F808362378012BF9
S3150000D80018D01BB1022B21D000BEFEE7E379002B16
S3150000D81014BF4FF40003002343F00103174AC2F874
S3150000D82000364FF47A74FFF775FFF0B9DCB90320C0
S3150000D83004B010BDE379002B14BF4FF4000300239E
S3150000D84043F001130D4AC2F80036EAE7E379002BEC
S3150000D85014BF4FF403034FF4403343F00103074A68
S3150000D860C2F80036DDE7013CDDE7002C14BF0020DE
S3150000D8700320DDE70220DBE70020D9E70040064071
S3150000D88000366E012DE9F84391F802904E780D7836
S3150000D8900746003018BF012008B900BEFEE78046E3
S3150000D8A00C46CB78022B50D003D8012B08D0002091
S3150000D8B008E0032B4CD0062BF9D1FFF72BFF01E034
S3150000D8C0FFF7A2FD09F1010206FB022605FB022570
S3150000D8D00309022F3FD0032F73D0012F40F0B080F1
S3150000D8E0E1780C2000FB01F0644F3858000902FB78
S3150000D8F000F2934200F2A6800C2202FB01725268EB
S3150000D900120906FB02F6B34200F29F800C2202FBCC
S3150000D91001729268120905FB02F5AB4200F298808B
S3150000D920A3781B0403F47023090601F070610B430E
S3150000D930227802F00F02134362781201D2B2134327
S3150000D9404F4A53610020BDE8F883FFF701FEB9E7AF
S3150000D950FFF776FEB6E7E178022901D000BEFEE7C2
S3150000D9600C2000FB01F0474F3858000902FB00F27B
S3150000D970934270D80C2202FB01725268120906FB10
S3150000D98002F6B3426AD80C2202FB017292681209AF
S3150000D99005FB02F5AB4264D8A3781B0403F470239D
S3150000D9A0090601F070610B43227802F00F0213435F
S3150000D9B062781201D2B21343314A93610020BDE866
S3150000D9C0F883E178032905D0062914BF4FF0000833
S3150000D9D04FF00108B8F1000F01D100BEFEE70C20A0
S3150000D9E000FB01F0284F3858000902FB00F2934271
S3150000D9F03AD80C2202FB01725268120906FB02F6A3
S3150000DA00B34234D80C2202FB01729268120905FB5C
S3150000DA1002F5AB422ED8A3781B0403F47023090643
S3150000DA2001F070610B43227802F00F021343627813
S3150000DA301201D2B21343124AD3610020BDE8F88323
S3150000DA4000BEFEE70120BDE8F8830120BDE8F883AB
S3150000DA500120BDE8F8830120BDE8F8830120BDE878
S3150000DA60F8830120BDE8F8830120BDE8F883012092
S3150000DA70BDE8F8830120BDE8F88300BFC4F70100C4
S3150000DA800040064018F8010070F7010008B900BE12
S3150000DA90FEE710B50446C378FF2B01D100BEFEE7B2
S3150000DAA0FFF7A0FC042801D100BEFEE72146FFF7E0
S3150000DAB0E9FE034658B9E4780A220848013A0169A2
S3150000DAC0C1F303618C4204D0002AF7D10323184620
S3150000DAD010BD002A08BF0323F9E700BF0040064037
S3150000DAE0022801D900BEFEE710B504461B4B1B6990
S3150000DAF0C3F30363022B1BD006D9032B1BD0062BC3
S3150000DB0004D1FFF707FE05E0012B01D0002001E05C
S3150000DB10FFF77AFC114B1B69C3F303430133B0FBD8
S3150000DB20F3F0012C0AD0C4B1022C0FD0002010BD96
S3150000DB30FFF70EFDEEE7FFF783FDEBE7074B1B69EB
S3150000DB40C3F303130133B0FBF3F010BD034B1B69A2
S3150000DB5003F00F030133B0FBF3F010BD00400640A5
S3150000DB6008B5104B1B6AC3F30363022B11D005D80B
S3150000DB705BB1012B13D1FFF747FC08BD032B0BD07C
S3150000DB80062B0CD1FFF7C6FD08BD0220FFF7A8FF44
S3150000DB9008BDFFF7DDFC08BDFFF752FD08BD0020FC
S3150000DBA008BD00BF0040064008B519B1012931D0B3
S3150000DBB000BEFEE7052816D009D8042828D1FFF7AD
S3150000DBC0C7FC2A4BD3F8043203F0070312E00628F9
S3150000DBD016D007281CD1FFF79DFD244BD3F8043639
S3150000DBE003F0070306E0FFF72BFD204BD3F80433C1
S3150000DBF003F0070313B1013B20FA03F3184608BDEF
S3150000DC00FFF702FC194BD3F8043103F00703F1E7E1
S3150000DC1000BEFEE7052816D009D8042823D1FFF751
S3150000DC2097FC124BD3F80432C3F30223E2E706282B
S3150000DC3011D0072817D1FFF76DFD0C4BD3F804362A
S3150000DC40C3F30223D6E7FFF7FBFC084BD3F80433F4
S3150000DC50C3F30223CEE7FFF7D7FB044BD3F8043117
S3150000DC60C3F30223C6E700BEFEE700BF004006403E
S3150000DC7008B5114B1B69C3F30113012B0BD02BB154
S3150000DC80022B11D0032B12D0002008BD0021062044
S3150000DC90FFF78AFF08BD084B186900F0020000284C
S3150000DCA018BF4FF4FA4008BD044B186808BD0021A0
S3150000DCB00520FFF779FF08BD008004400000002022
S3150000DCC0134B1B69C3F38103012B06D0EBB1022B67
S3150000DCD005D0032B0CD000BEFEE7002070470C4B8E
S3150000DCE0186900F00200002818BF4FF4FA40704788
S3150000DCF0074B186910F0020009D0186900F00100FE
S3150000DD00002818BF4FF47A7070474FF4FA30704706
S3150000DD100080044008B5294B5B6813F4006F4AD0B5
S3150000DD20264B5B68C3F30313072B35D00AD90A2B9E
S3150000DD303ED017D8082B33D0092B1AD10120FFF774
S3150000DD40CFFE17E0022B1DD008D9042B1FD0062BBF
S3150000DD500FD101210520FFF727FF0BE04BB9FFF795
S3150000DD60FFFE07E00C2B20D00E2B02D1FFF780FF21
S3150000DD7000E00020114B5B68C3F302230133B0FBC4
S3150000DD80F3F008BD01210620FFF70EFFF2E701219F
S3150000DD900420FFF709FFEDE70020FFF7A1FEE9E702
S3150000DDA001210720FFF700FFE4E7FFF789FFE1E71E
S3150000DDB04FF4FA30DEE7002008BD00BF00800440C3
S3150000DDC010B50C461C286FD022D8182855D010D86C
S3150000DDD016283ED047D8152840F0A7805F4BDB6851
S3150000DDE0C3F30163022B00F2AB805D4A52F8233085
S3150000DDF005E01A284AD04DD8FFF78CFF03460020CD
S3150000DE00002B00F09580002C00F0A680236010BD4A
S3150000DE1020286FD010D81E2858D060D8514B9B7838
S3150000DE20DB0940F097804D4B1B6903F00203002B82
S3150000DE3018BF4FF4FA43E2E722286DD063D32328B4
S3150000DE4073D1464B1B6C13F001034DD14FF4807018
S3150000DE50D9E7424BDB68C3F38163022B72D8404A91
S3150000DE6052F82330CBE73D4BDB68C3F30173022B3B
S3150000DE706AD83B4A52F82330C1E7384BDB689B0F20
S3150000DE80022B63D8364A52F82330B8E7FFF7F0FE84
S3150000DE900346B4E7334B9B78DB0901D00023AEE79A
S3150000DEA0FFF70EFF0346AAE72E4B9B78DB094FD1FF
S3150000DEB02A4B1B6913F00203A1D0284B1B6903F000
S3150000DEC00103002B18BF4FF47A7398E7254B9B7814
S3150000DED0DB09002B14BF00234FF4FA338FE71F4BE7
S3150000DEE01B6CC3F3001343B30120FFF7F9FD034690
S3150000DEF0002085E7194B1B6CC3F3C003002BF3D13D
S3150000DF004FF480707FE7154B1B6CC3F38003002B27
S3150000DF10EAD14FF4807076E7104B1B6CC3F34003D5
S3150000DF20002BE1D14FF480706DE70420002367E7F2
S3150000DF30042818BF4FF4807065E74FF4807062E7DD
S3150000DF4000235CE700235AE7002358E7002356E73F
S3150000DF50002354E7002352E710BD00BF00800440B1
S3150000DF600400002000D0074030B583B000230193A1
S3150000DF702F4B33F810309B0003F1804303F5CA237F
S3150000DF801D68C5F3C0051C6804F00704AC4226D31F
S3150000DF901A6812F0804F22D01B68C3F30263022B6B
S3150000DFA020D008D8012B0FD03D2835D024D83C28C6
S3150000DFB02CD000240CE0032B19D0062BF4D107201B
S3150000DFC0FFF7F2FD019003E00620FFF7EDFD01905B
S3150000DFD00134019BB3FBF4F405FB0444019401985E
S3150000DFE003B030BD0420FFF7DFFD0190F0E7052008
S3150000DFF0FFF7DAFD0190EBE73E2813D03F28D8D192
S3150000E00001A91820FFF7DCFE0024E1E701A915208D
S3150000E010FFF7D6FE0024DBE701A91620FFF7D0FEA6
S3150000E0200024D5E701A91720FFF7CAFE0024CFE791
S3150000E030D0F60100F0B5A5B00446FFF7D3F90128E4
S3150000E04001D000BEFEE72CB12646002C40F07181BF
S3150000E05000BEFEE701238DF80B3000228DF80C2060
S3150000E0608DF80D308DF80E208DF808308DF80930BA
S3150000E0708DF80A308DF816308DF814308DF815208D
S3150000E0808DF80F208DF810308DF811308DF838305E
S3150000E0900D928DF82530BA4906918DF81C208DF821
S3150000E0A024208DF81D308DF81E2002208DF81F00CB
S3150000E0B08DF820308DF821308DF830308DF82820FD
S3150000E0C08DF82F208DF829200C218DF82A108DF837
S3150000E0D02B208DF82C308DF82D308DF83D30032116
S3150000E0E08DF83C108DF84B308DF841108DF840209E
S3150000E0F08DF83F308DF83E308DF845008DF8443070
S3150000E1008DF843208DF8421006208DF849008DF8D1
S3150000E11048208DF847308DF846109A4922912021E3
S3150000E12021918DF84C308DF84D208DF84E208DF8CC
S3150000E1304F208DF850308DF854308DF853308DF8CF
S3150000E14052208DF851208DF878308DF879308DF881
S3150000E1507A308DF87B308DF87C308DF87D308DF8F7
S3150000E16083308DF858301792189219921A921B9292
S3150000E1701C921D928DF87E308DF87F308DF88020B0
S3150000E1808DF881208DF882208DF88C308DF88D30B9
S3150000E1908DF88E2002AE34467B4B1B69C3F30363B6
S3150000E1A0032B1CD0FFF74CFA38B900210120FFF7EA
S3150000E1B057FA0546002840F0B98003238DF807304A
S3150000E1C000228DF8062001228DF8052024A800F8EB
S3150000E1D08C3DFFF75BFC0546002840F0A7803146E2
S3150000E1E0E078FFF7CBF9054668B904F11001607FC6
S3150000E1F0FFF718F9054630B904F1200194F8280014
S3150000E200FFF7AAFA0546FFF7EDF8022800F0998015
S3150000E210032800F09980012840F0998004F1360621
S3150000E220002D53D1F378032B40F0938094F82830D7
S3150000E230002B00F0F38106238DF8073002238DF8BA
S3150000E240063001238DF8053024A800F88C3DFFF731
S3150000E2501DFC0546637F7BB1012820D101238DF883
S3150000E260073000228DF806208DF8053024A800F826
S3150000E2708C3DFFF70BFC0546E37883B1012D0ED1EB
S3150000E28002238DF8073000238DF806308DF805300F
S3150000E29024A8012300F88C3DFFF7F8FB0546ADB92D
S3150000E2A0E11DA07BFFF7DCF9054678B9F3788DF818
S3150000E2B00730B3788DF8063073788DF805303378EB
S3150000E2C024A800F88C3DFFF7E1FB054675BB00224C
S3150000E2D02E4B1A6094F8303013B1E26A2B4B1A6059
S3150000E2E094F8353053B128490A6A22F0706294F8DE
S3150000E2F034301B0603F0706313430B6294F843300B
S3150000E300D3B104F136010120FFF7BCFA054668B91E
S3150000E31004F13A010220FFF7B5FA054630B904F1D7
S3150000E3203E010320FFF7AEFA054628B1284625B080
S3150000E330F0BD002C7FF430AF14F1440F28D100BE9D
S3150000E340FEE704F13A066BE704F13E0668E700BE15
S3150000E350FEE78DF80730B3788DF8063073788DF8C0
S3150000E3600530337824A800F88C3DFFF78FFB05466F
S3150000E3700028ABD1E11DA07BFFF772F90546A5E7A2
S3150000E38000127A000084FF1F0040064000000020B3
S3150000E39094F84430E3B194F8455094F8463094F834
S3150000E3A04720A349486820F400604860496821F482
S3150000E3B07F61002D14BF4FF4006000201B01DBB20B
S3150000E3C0120202F4E06213430B430343984A53607C
S3150000E3D094F84830DBB194F84A3094F849209449CF
S3150000E3E0096921F03F0194F84C00014394F84B0071
S3150000E3F0002814BF022000209B0003F00C030B43EF
S3150000E400120102F0300213430343894A136194F860
S3150000E4107030002B37D0864B196C21F0010194F82F
S3150000E42071200A431A641B6C23F0020394F87220CD
S3150000E430002A14BF0222002213437D4A1364136C80
S3150000E44023F0040394F87320002A14BF0422002248
S3150000E4501343774A1364136C23F0080394F874206B
S3150000E460002A14BF082200221343714A1364136C56
S3150000E47023F0100394F87520002A14BF10220022FE
S3150000E48013436B4A136494F85030002B38D0694B11
S3150000E490626D1A60A26D5A60E26D9A6004F16005C1
S3150000E4A00121634855F8043BC2684E1EF6B2012EA0
S3150000E4B012D04EB1022E16D0032E1BD0C2600329F5
S3150000E4C01ED80131C9B2EDE722F040721B0603F0F7
S3150000E4D040731343C360F4E722F040629B0603F0E7
S3150000E4E040631343F6E722F040521B0703F0405304
S3150000E4F01343EFE722F0404242EA83734C4AD3606B
S3150000E50094F87630EBB14A4A936E002090665168D3
S3150000E51021F4805194F878301B0303F480530B43A5
S3150000E5205360906694F877305BB194F879305B006D
S3150000E53003F00E0394F87A2042F0805213433C4ACB
S3150000E540936604F17C0314F17C0F01D100BEFEE753
S3150000E550002B38D0D4F88030002B34D0E36F93B33F
S3150000E56000223548354D02EB8201D4F880305B5CE1
S3150000E57030F813309B0003F1804303F5CA231E686D
S3150000E58026F080461E60D4F880305F185E5CBB784B
S3150000E5901B0603F0E063F978C90001F008010B439C
S3150000E5A0397901F007010B437978002914BF4FF040
S3150000E5B0804100210B4330F8161045F82130013216
S3150000E5C0E36F9A42CFD314F1840F01D100BEFEE768
S3150000E5D094F8843003B31A498B7803F07F0394F8D8
S3150000E5E0852082F0010243EAC213DBB28B7094F9F4
S3150000E5F08630002BBCBF20335BB2DAB2202A01D9A9
S3150000E60000BEFEE70E490A7903F01F0302F0E0029E
S3150000E61013430B71002589E6002587E6637F002BEF
S3150000E6207FF41CAEE378002B7FF42AAE012536E694
S3150000E6300080044004000020D0F60100005006408F
S3150000E64000D0074070B504460D46112808D9232886
S3150000E65040F288804D2840F289800423184670BD18
S3150000E660082850D00FD90D2861D022D80A2852D0B8
S3150000E6704DD30B2855D00C2871D100210520FFF76A
S3150000E68093FA002326E003282DD00AD9052832D094
S3150000E6902DD3062833D0072861D1FFF73BF8002396
S3150000E6A018E001281AD011D90220FFF719FA002321
S3150000E6B010E00F2847D040D310284AD011284ED159
S3150000E6C001210720FFF770FA002303E00020FFF77F
S3150000E6D007FA0023002DC1D02860BFE70120FFF70D
S3150000E6E0FFF90023F6E7FFF715FB0023F2E7FEF735
S3150000E6F02FFF0023EEE7FEF7A3FF0023EAE7FEF76E
S3150000E70083FE0023E6E74D4B18680023E2E7FFF798
S3150000E71027FA0023DEE700210420FFF745FA00234D
S3150000E720D8E701210420FFF73FFA0023D2E70121B1
S3150000E7300520FFF739FA0023CCE700210620FFF772
S3150000E74033FA0023C6E701210620FFF72DFA00233E
S3150000E750C0E700210720FFF727FA0023BAE70020C9
S3150000E7600423B7E7FFF72CFB034677E7242806D8F0
S3150000E77004230022002D3FF471AF2A606EE7A0F15A
S3150000E7803303DBB21A2B07D82D4A22FA03F313F010
S3150000E790010F18BF0423ECD12A4B33F814202A4B5F
S3150000E7A053F8223013F0804F44D0284B1E5D16F0EC
S3150000E7B0200F07D116F0400F0ED116F0800F15D19D
S3150000E7C000BEFEE70120FFF78BF9024650B116F0B6
S3150000E7D0180F12D10023CDE70020FFF781F902467A
S3150000E7E00028F4D100224FF48073C3E70220FFF71C
S3150000E7F077F902460028F5D0E9E716F0080F06D1AA
S3150000E80016F0100F0BD100224FF48073B2E70021EF
S3150000E8102046FFF7A9FB024616F0100F04D001218F
S3150000E8202046FFF7A1FB0246002A14BF00234FF43F
S3150000E83080739FE74FF480739BE700BF00000020C2
S3150000E84041210004D0F60100005006406CF801009A
S3150000E85008B900BEFEE710B404460AB900BEFEE7DA
S3150000E86004480460017182600373437300205DF8FD
S3150000E870044B7047100000203B4B1B79834201D8A4
S3150000E88000BEFEE7F0B583B00E4605468DF80400DF
S3150000E8908DF8051000F0D6F8334B1C7B5C73012312
S3150000E8A08DF80630002C4AD000242F4F04E00134A6
S3150000E8B0E4B23B7BA34242D9BB6853F82430002B19
S3150000E8C0F5D01A79022AF2D01A68996801A89047F9
S3150000E8D00028ECD07C73002EE9D140F2031500230A
S3150000E8E08DF80630A400204E24E00134E4B23B7BD0
S3150000E8F0A34212D9BB6853F82430002BF5D01A79FD
S3150000E900012AF2D01A68996801A890470028ECD02D
S3150000E9107C73002EE9D14FF4827500F085F8284605
S3150000E92003B0F0BD1A68996801A89047043C14F139
S3150000E930040FF2D0B3681B59002BF3D1F6E70A4F48
S3150000E9403B6853F82500FFF775FB7D7105460028E7
S3150000E950C5D102238DF80630034B1B7B002BDCD080
S3150000E9600024014FC6E700BF1000002008B5FFF7DE
S3150000E97069FE08BD10F10E0F01DA00BEFEE77A2827
S3150000E98001DD00BEFEE710B40E4B0F4C9C4203D1D6
S3150000E9900E4B0F4C9C420DD12AB100F110030A4CCC
S3150000E9A054F8233013601030074B43F820105DF8FD
S3150000E9B0044B70471030044B53F820309942F6D080
S3150000E9C000BEFEE700C000000080FF1F8465020055
S3150000E9D05C550200002801DA00BEFEE77A2801DD58
S3150000E9E000BEFEE7420900F01F00012303FA00F013
S3150000E9F0014B43F82200704700E100E0002801DAED
S3150000EA0000BEFEE77A2801DD00BEFEE7430900F0FE
S3150000EA101F00012202FA00F02033024A42F82300C6
S3150000EA20704700BF00E100E0054B1B68002B04DDCA
S3150000EA30013B034A1360002B00DD704762B6FCE71A
S3150000EA402400002072B6024A13680133136070472F
S3150000EA502400002060B170B506460C46002520460D
S3150000EA6000F042F801351834AE42F8D1002070BDEE
S3150000EA70002070474160704781607047184B98428C
S3150000EA801ED10D2913D004D859B101290CD0FF206D
S3150000EA9070470F2911D00DD31029F8D102F00D00BF
S3150000EAA0704742F00100704742F00200704742F0A2
S3150000EAB00400704742F00800704702F00E007047ED
S3150000EAC0084B98420AD119B1012904D0FF2070479A
S3150000EAD002F00B00704702F007007047FF207047F6
S3150000EAE000A0044000B0044038B504460068031C8A
S3150000EAF018BF01230BB900BEFEE71A46E37A012BC5
S3150000EB0002D032B900BEFEE72269003218BF0122E8
S3150000EB10F7E761681F2901D900BEFEE750F82120FA
S3150000EB20257A012D58D01DB1022D5AD000BEFEE720
S3150000EB3022F00202657A2D0105F0100522F050023E
S3150000EB402A43A57AAD0105F040052A4322F4E06583
S3150000EB50082B12D1314B5A6802F00F02FFF78EFFD5
S3150000EB60FF2841D02D4A536823F00F0353605168A4
S3150000EB7000F00F030B43536000231B0203F4E06312
S3150000EB802B43227BD20392B223F478231343627B76
S3150000EB90120402F470221343A27B0AB143F080737D
S3150000EBA02268616842F821302168D1F8C030606877
S3150000EBB00122824023EA0202E37B83401343C1F829
S3150000EBC0C030E37A012B18D121694B69227D6AB1E5
S3150000EBD0012A13D000BEFEE722F0010242F0020233
S3150000EBE0A8E742F00302A5E70023C6E76168012211
S3150000EBF08A4023EA02032269536138BD6068012214
S3150000EC008240134305460A680120A84022EA000014
S3150000EC10627DAA4002430A60EDE700BF008004401F
S3150000EC2000F00F0001230BB900BEFEE7034A107780
S3150000EC300BB900BEFEE7014BD87770470080004055
S3150000EC400F2801D900BEFEE70A4B1B680BB900BEB0
S3150000EC50FEE710B453F820400CB900BEFEE753F8A7
S3150000EC602040616053F820309A6000205DF8044B24
S3150000EC70704700BF2800002010B5064B1B6853F8EC
S3150000EC802040FFF7CDFF24B1636813B1217BA06854
S3150000EC90984710BD2800002070B5054600F00F0605
S3150000ECA0002231460A4800F08FFA0A4B1B6853F8D7
S3150000ECB025405CB12846FFF7B3FF054B9E7701233D
S3150000ECC02373636813B1217BA068984770BD00BFAA
S3150000ECD000800040280000202DE9F04F85B09DF807
S3150000ECE038800F2801D900BEFEE78C46754C246893
S3150000ECF00CB900BEFEE754F82040003418BF0124CA
S3150000ED0025460CB900BEFEE7B8F1020F04D9A8F1FA
S3150000ED100404022C28BF00250DB900BEFEE700F052
S3150000ED200F05012404FA08F4E6B2B2FBF6F706FB77
S3150000ED3017270FB100BEFEE7B3FBF6F706FB173742
S3150000ED400FB100BEFEE70F9FB7FBF6F70F9906FB64
S3150000ED501716002E14BF4FF0010B4FF0000B40F0BA
S3150000ED60AC800393029267468246574E2946304648
S3150000ED7000F02FFA336843F08003336001260EB9A2
S3150000ED8000BEFEE76B0103F1804303F5004903F57E
S3150000ED901043029A1A600EB900BEFEE74A4800EB1D
S3150000EDA0451241F210030399D150CDF80480CDF8F5
S3150000EDB0008000231A46294600F030FA012F29D098
S3150000EDC097B1022F3CD0032F4FD03F4C0F9A2946C4
S3150000EDD0204600F03FFA01222946204600F06CFA50
S3150000EDE0002E57D100BEFEE70EB900BEFEE7002298
S3150000EDF041F2040329F8032062B20EB900BEFEE711
S3150000EE0092B26B0103F1804303F5004341F2140112
S3150000EE105A52DAE763B20EB900BEFEE79BB241F280
S3150000EE20040229F802300EB900BEFEE76B0103F1B9
S3150000EE30804303F50043002141F214029952C4E7CE
S3150000EE4063B20EB900BEFEE79BB241F2040229F896
S3150000EE5002300EB900BEFEE76A0102F1804202F5F9
S3150000EE60004241F214015352AFE70EB900BEFEE76D
S3150000EE70002241F2040329F803200EB900BEFEE782
S3150000EE806B0103F1804303F50043002141F21402B4
S3150000EE9099529AE76B0103F1804303F5004341F26F
S3150000EEA01C015A5A12B242F0020292B25A52054B51
S3150000EEB01B6853F82A3000221A73584605B0BDE87D
S3150000EEC0F08F00BF2800002000800040F0B583B01E
S3150000EED09DF820600F2801D900BEFEE7204C24686B
S3150000EEE00CB900BEFEE700F00F040125B540EDB2F7
S3150000EEF0B2FBF5F705FB17270FB100BEFEE7B3FB24
S3150000EF00F5F705FB17350DB100BEFEE7099D019526
S3150000EF100096FFF7E1FE0546F8B90A9A2146114820
S3150000EF2000F0CAF9630103F1804303F5004341F29F
S3150000EF301C029B5A23F008031B041B0C9DF82C2073
S3150000EF40002A14BF082200221A43630103F18043FA
S3150000EF5003F5004341F21C015A52284603B0F0BDA6
S3150000EF6028000020008000400F2801D900BEFEE7DF
S3150000EF7008B5094B1B680BB900BEFEE753F82030F5
S3150000EF800BB900BEFEE7012200F00F01034800F0B6
S3150000EF901BF9002008BD00BF2800002000800040AB
S3150000EFA00F2801D900BEFEE708B5094B1B680BB94F
S3150000EFB000BEFEE753F820300BB900BEFEE7002284
S3150000EFC000F00F01034800F0FFF8002008BD00BF65
S3150000EFD028000020008000400F288CBF002301235A
S3150000EFE00BB900BEFEE730B4184C24680CB900BE5D
S3150000EFF0FEE70BB900BEFEE7154D2C5C04F07F045E
S3150000F0002C540BB900BEFEE7114D2C5C01F03F01FC
S3150000F01004F0C004214329540BB900BEFEE70C4995
S3150000F020095C01F0BF01002A14BF402200220A43F6
S3150000F03007490A540BB900BEFEE7054A135C43F0C4
S3150000F04080031354002030BC704700BF2800002006
S3150000F050001002400F2801D900BEFEE7084B1B68CE
S3150000F0600BB900BEFEE753F820300BB900BEFEE731
S3150000F07000F00F0380335B01024AD150704700BF96
S3150000F08028000020008000400F2801D900BEFEE7BE
S3150000F0900A4B1B680BB900BEFEE753F820300BB9CC
S3150000F0A000BEFEE700F00F035B0103F1804303F5AA
S3150000F0B0004341F20C029950704700BF280000201F
S3150000F0C00F2801D900BEFEE70A4B1B680BB900BE2C
S3150000F0D0FEE753F820300BB900BEFEE700F00F0341
S3150000F0E05B0103F1804303F5004341F2100299509E
S3150000F0F0704700BF280000200F2801D900BEFEE798
S3150000F10008B5084B1B680BB900BEFEE753F8203064
S3150000F1100BB900BEFEE70A4600F00F01024800F0F8
S3150000F120CBF808BD28000020008000400F2801D938
S3150000F13000BEFEE708B5084B1B680BB900BEFEE72C
S3150000F14053F820300BB900BEFEE700F00F0103486C
S3150000F15000F0E6F808BD00BF28000020008000404F
S3150000F1600F2801D900BEFEE7124B1B680BB900BE83
S3150000F170FEE753F820300BB900BEFEE700F00F00A3
S3150000F180430103F1804303F5004341F21C029B5AFD
S3150000F19023F008031B041B0C002914BF08220022BD
S3150000F1A01A43400100F1804303F5004341F21C017C
S3150000F1B05A5270472800002008B100BEFEE70148F9
S3150000F1C0704700BF008000400AB981767047C1765B
S3150000F1D0704700EB4111002341F208028B5001F504
S3150000F1E08052136041F204028B5241F206028B52A6
S3150000F1F041F20C028B5041F210028B5041F2140284
S3150000F2008B5241F216028B5241F218028B5041F298
S3150000F2101C028B5241F21E028B5270470F2901D9F4
S3150000F22000BEFEE710B4DB00DCB29DF8083003F048
S3150000F2300703234343EAC2239DF80420120202F483
S3150000F240E06213439BB2803100EB4111CB805DF845
S3150000F250044B70470F2901D900BEFEE7036813F07F
S3150000F260800F15D010B400EB411341F208041B596E
S3150000F270002B13DB00EB41131B5913F0804F0DD10C
S3150000F28022F0404200EB41110A515DF8044B7047F1
S3150000F29000EB411141F20803CA50704700EB4111DF
S3150000F2A041F20804085920F47F7020F00300C2F3ED
S3150000F2B0090303430B51E8E70F2901D900BEFEE716
S3150000F2C010B4034600EB411041F21E04005B10F43B
S3150000F2D0004F14D103EB411341F21E00195AC2F339
S3150000F2E00E0201F400411143195241F21600195A57
S3150000F2F001F400410A431A525DF8044B704703EBD0
S3150000F3004113195BC2F3080201F47E4111431953FC
S3150000F31041F21600195A01F47E410A431A52EBE7EC
S3150000F3200F2901D900BEFEE700EB411341F21E0290
S3150000F3309B5A13F4004F00EB411041F21603C05ADA
S3150000F34014BFC0F30800C0F30E00704708B50020D4
S3150000F350FFF792FC08BD08B50120FFF78DFC08BD3C
S3150000F36008B50220FFF788FC08BD08B50320FFF7A3
S3150000F37083FC08BD08B50420FFF77EFC08BD08B570
S3150000F3800520FFF779FC08BD08B50620FFF774FCD9
S3150000F39008BD08B50720FFF76FFC08BD08B50820B3
S3150000F3A0FFF76AFC08BD08B50920FFF765FC08BD34
S3150000F3B008B50A20FFF760FC08BD08B50B20FFF76B
S3150000F3C05BFC08BD08B50C20FFF756FC08BD08B568
S3150000F3D00D20FFF751FC08BD08B50E20FFF74CFCC9
S3150000F3E008BD08B50F20FFF747FC08BD38B500205B
S3150000F3F0FFF7E2FEC56A002404E06D080134E4B2BA
S3150000F400102C06D015F0010FF7D02046FFF744FC6C
S3150000F410F3E738BD08B900BEFEE709B900BEFEE74E
S3150000F42002680A6042684A6082688A60C2680A6145
S3150000F43003698B61324BDB6CC3F30333072B40D07C
S3150000F44010D8032B2ED006D8012B27D020D94FF069
S3150000F450FF33CB601FE0052B2FD02BD94FF0FF33A6
S3150000F460CB6018E00B2B37D006D8092B30D02CD91F
S3150000F4704FF48043CB6018E00D2B35D030D30E2BE4
S3150000F48036D00F2B38D0CB68B3F5803F03D20CE0D3
S3150000F4904FF48033CB6000234B6109E04FF0FF331C
S3150000F4A0CB60F8E74FF40043CB604FF480534B61D9
S3150000F4B0002070470023CB60F7E74FF0FF33CB60A7
S3150000F4C0E9E74FF0FF33CB60E5E70023CB60ECE7DD
S3150000F4D04FF0FF33CB60DEE74FF40043CB60E4E749
S3150000F4E04FF48033CB60D6E74FF0FF33CB60D2E7E3
S3150000F4F04FF0FF33CB60CEE74FF48033CB60CAE7E3
S3150000F5000080044008B900BEFEE72DE9F047174623
S3150000F510064684688C4221D8C368234499421DD28A
S3150000F52011F0070F01D000BEFEE701F500010C1B2C
S3150000F5304FF4006808F1FF333B4214BF012000205E
S3150000F5401C4D4FF0700A4FF0090957B320B92B78BC
S3150000F55013F0800F12D10220BDE8F0873468A14273
S3150000F56021D373682344994220D211F00F0F01D0A2
S3150000F57000BEFEE70C1B4FF48058DBE785F800A0C1
S3150000F58085F80790C4F30743AB71C4F307236B7187
S3150000F590E3B22B71304610F097F8A7EB0807444406
S3150000F5A0D3E7BDE8F0870120BDE8F0870120BDE87C
S3150000F5B0F08700BF0000024008B900BEFEE738B57C
S3150000F5C004468068884227D8E5680544A94223D2C4
S3150000F5D011F0070F01D000BEFEE701F50001091A80
S3150000F5E01748007810F0800F28D020461C46144B90
S3150000F5F070251D700125DD71C1F307459D71C1F3AD
S3150000F60007255D71C9B21971110AD972D2B29A72FF
S3150000F6105C7210F059F838BD206881420AD36568DB
S3150000F6200544A94208D211F00F0F01D000BEFEE733
S3150000F630091AD5E7012038BD012038BD022038BDA2
S3150000F6400000024008B900BEFEE72DE9F0470C466F
S3150000F650904607460BB900BEFEE711F0070F01D032
S3150000F66000BEFEE712F0070F45D18268914218D31B
S3150000F670C16811448C4214D204F50004A41A002077
S3150000F6805E1E1E4D4FF0700ADFF87890B8F1000F3D
S3150000F69032D088BB2B7813F0800F10D10220BDE842
S3150000F6A0F0873A68944206D3796811448C4204D2B2
S3150000F6B0A41A0020E4E70120E2E70120E0E785F84C
S3150000F6C000A00723EB71C4F30743AB71C4F3072310
S3150000F6D06B71E3B22B713246094B12F8011F03F826
S3150000F6E0011F4B45F9D138460FF0EEFF0834A8F15B
S3150000F6F008080836CAE70120BDE8F0870000024086
S3150000F700070002400F0002402DE9F84F9DF82CB08B
S3150000F71008B900BEFEE791469A4680460BB900BE80
S3150000F720FEE70A9B0BB900BEFEE711F0030F01D0FE
S3150000F73000BEFEE712F0030F56D18568A94217D323
S3150000F740C3682B44994213D201F50004641B0026BA
S3150000F7503346264FB9F1000F05D023B93B7813F095
S3150000F760800F10D102230A9A16601846BDE8F88F5A
S3150000F770D8F80050A94231D3D8F804302B44994226
S3150000F7802FD24C1BE3E770233B700223FB71C4F3BB
S3150000F7900743BB71C4F307237B71E3B23B7187F860
S3150000F7A00BB00AF1FF32124B12F8011F03F8011FCA
S3150000F7B010498B42F8D140460FF086FF034638B118
S3150000F7C00D4A944286BFA5F5000636192E19C1E7E3
S3150000F7D0A9F104090AF1040A0434BBE7002601234F
S3150000F7E0C1E700260123BEE70123BEE70000024071
S3150000F7F00B0002400F000240FFFF7F00022801D9E4
S3150000F80000BEFEE770B50646294B53F8204094F833
S3150000F8101131D3B16379DBB2032B28D0256894F874
S3150000F8201001FFF7BDFB2B6813F4001F02D16A68B5
S3150000F830920C6A60C3F3034385F84830AB681BBA81
S3150000F840AB60EB681BBAEB6011E01A4B53F8205023
S3150000F85000220521284600F0FAF900220621284652
S3150000F86000F0F5F900220721284600F0F0F9002300
S3150000F87023606379DBB2032B08D000236371D4F8CD
S3150000F88000511DB194F81131012B04D0A3790BB1AD
S3150000F890637933B170BD2346002208213046A8475C
S3150000F8A0F4E7201D03F0B8FD0028F3D000BEFEE704
S3150000F8B02C000020BCF80100022801D900BEFEE79A
S3150000F8C070B50C46094B53F820600022084B53F8DC
S3150000F8D0200000F0BCF9E4003519AB791BB1043403
S3150000F8E0301903F099FD00236B7170BD2C000020C8
S3150000F8F0BCF80100022801D900BEFEE710B5074B8F
S3150000F90053F82040064B53F82020D2F808310BB1AB
S3150000F9100A219847204600F0B9F910BDBCF801004D
S3150000F9202C000020022801D900BEFEE72DE9F04395
S3150000F93095B08C4B53F820508B4B53F82060AB6A34
S3150000F9402A6B134003F00103002463B90134202C11
S3150000F95000F0B280AB6A2A6B134004F01F02D3405A
S3150000F96003F00103F1E7002B00F0A68007462B68A1
S3150000F97013F0005F79D0072C77D8052C21D1737945
S3150000F980DBB2012B2AD13168284600F089F9202301
S3150000F9902B6300237371D6F80081B8F1000F04D0F1
S3150000F9A03346002201213846C047737913B93846D9
S3150000F9B0FFF724FF06EBC4035B79DBB2022B65D1AC
S3150000F9C012E0062C43D140232B63D6F80081B8F110
S3150000F9D0000F03D0334600220221C04706EBC403C2
S3150000F9E05B79DBB2022B51D106EBC40898F80730DD
S3150000F9F0002B00F0A3802146284600F0A5F901AAB5
S3150000FA002146284600F0A5F9AB689DF8073003F0BB
S3150000FA100F03042B06D104F01F02012393401F2C71
S3150000FA2000D82B63002388F80530D6F80091B9F189
S3150000FA30000F04D03346224604213846C84798F8BA
S3150000FA4005300BBB21463846FFF736FF1CE0072C76
S3150000FA5014D180232B63D6F80081B8F1000FBDD0F6
S3150000FA60334600220321C047B8E74FEAC40906EB34
S3150000FA70090898F80530DBB2012B20D006EBC40349
S3150000FA805B79DBB2022BAFD01F2C15D8AB6A296B82
S3150000FA9004F01F020B40D34013F0010F0CD02B686B
S3150000FAA013F0005F52D0072C50D8737923B9012385
S3150000FAB093401F2C00D82B6315B0BDE8F083214678
S3150000FAC0284600F041F956F834202146284600F031
S3150000FAD040F904F01F02012393401F2C98BF2B63AB
S3150000FAE02B6813F0005F27D056F80930DB7813F047
S3150000FAF00F0F21D12146284600F00EF9036823F0A6
S3150000FB0070630360036843F080630360002388F832
S3150000FB100530D6F80091B9F1000F04D033462246DD
S3150000FB2000213846C84798F80530002BA6D1214653
S3150000FB303846FFF7C1FEA1E7AB68E7E704F01F020E
S3150000FB40012393401F2C98BF2B636BE706EBC4067B
S3150000FB507379002BB0D1012393401F2CACD82B63B3
S3150000FB60AAE700BFBCF801002C000020022801D93A
S3150000FB7000BEFEE710B5074B53F82040064B53F87E
S3150000FB802020D2F808310BB10A219847204600F010
S3150000FB9071F810BDBCF801002C000020022801D924
S3150000FBA000BEFEE7F8B5184B53F82050174B53F834
S3150000FBB020602B6813F4804F25D00446D5F8083B07
S3150000FBC013F4003F0CD0D5F8083B43F40033C5F8D6
S3150000FBD0083BD6F800711FB1334600220521B8470D
S3150000FBE0D5F8083B13F4803F0DD0D5F8083B43F415
S3150000FBF08033C5F8083BD6F8005125B133460022BC
S3150000FC0006212046A847F8BDBCF801002C000020BC
S3150000FC1008281BD90C2812D006D80A280BD00CD8D5
S3150000FC20092812D10C2070470E280CD009D30F28B2
S3150000FC300BD14020704710207047142070471820C1
S3150000FC4070472020704730207047002070471F29DA
S3150000FC5009D801F01F01012303FA01F12AB9836AC9
S3150000FC6023EA0101816200207047836A1943816299
S3150000FC70F9E70000026A034B134013B1024B03621B
S3150000FC80036A704706003B0002003000026A034B1D
S3150000FC90134013B1014B0362036A704704000B0063
S3150000FCA009B900BEFEE770B50D460446D0F88000DF
S3150000FCB0C0F30340FFF7ACFF85F84800D4F8803066
S3150000FCC02B6013F4001F05D0D4F884306B60064611
S3150000FCD028B970BDD4F884309B0C6B60F7E700231D
S3150000FCE0883499088A0054F8211009BA2A44916088
S3150000FCF00433B342F5D370BD036813F4006F09D023
S3150000FD00D0F8000CC0F301400330012303FA00F0E1
S3150000FD10C0B270470820FBE738B504460D46FFF72A
S3150000FD20EBFF0830C0B24FF40073B3FBF0F3DBB265
S3150000FD30B5FBF3F203FB12538008D20100FB03204C
S3150000FD40203004EB800038BD08B5FFF7E5FF0368F7
S3150000FD5008BD0AB900BEFEE72DE9F0411446074684
S3150000FD60FFF7DAFF064604F108080068C0F303400F
S3150000FD70FFF74EFF05463846FFF7BEFF854203D91B
S3150000FD803846FFF7B9FF054684F8485033682360C4
S3150000FD9013F4001F22D07368636035F0030008BFB8
S3150000FDA000230BD0002399088A000832B25812BAF1
S3150000FDB048F821200433DBB28342F4D39D420BD9A9
S3150000FDC0DA1D144483F003020832B25C04F8012FF2
S3150000FDD00133DBB29D42F5D1BDE8F08173689B0C1F
S3150000FDE06360DAE708B50020FFF784FD08BD08B5B3
S3150000FDF00020FFF7BBFE08BD08B50020FFF7CEFECA
S3150000FE0008BD08B50020FFF78DFD08BD08B5002028
S3150000FE10FFF788FD08BD08B50120FFF76BFD08BD9B
S3150000FE2008B50120FFF7A2FE08BD08B50120FFF7BF
S3150000FE3079FD08BD08B50220FFF75CFD08BD08B5D1
S3150000FE400220FFF793FE08BD08B50220FFF76AFD02
S3150000FE5008BD0000032801D900BEFEE709B900BEAF
S3150000FE60FEE76D4B53F820304A78002A40F0908028
S3150000FE708A78002A40F0A180CA7802F00102087848
S3150000FE80002800F0C580002A40F09380D3F88C202B
S3150000FE9042F48062C3F88C20D3F88C2042F40062CE
S3150000FEA0C3F88C20D3F88C2042F48052C3F88C20FF
S3150000FEB0D3F88C2042F40072C3F88C20D3F88C005F
S3150000FEC0CA7A120202F4807220F480700243C3F8E8
S3150000FED08C20D3F88C2042F08002C3F88C204A781C
S3150000FEE0002A57D09A6D42F010029A658A78002A45
S3150000FEF055D09A6D42F020029A65CA78002A53D0EE
S3150000FF009A6D42F040029A65986D0A79520002F0A5
S3150000FF10020220F0020002439A659A6D22F0010265
S3150000FF20487902439A659A6D087A003018BF012015
S3150000FF3022F0080242EAC0029A65D3F88C008A7958
S3150000FF40120102F0100220F010000243C3F88C20C8
S3150000FF50D3F88C00CA79520102F0200220F020006A
S3150000FF600243C3F88C20D3F88C004A7A920002F040
S3150000FF70040220F004000243C3F88C20D3F88C203E
S3150000FF8022F00102897A0A43C3F88C2000207047C8
S3150000FF90012272E79A6D22F010029A65A6E79A6D21
S3150000FFA022F020029A65A8E79A6D22F040029A652F
S3150000FFB0AAE701207047012070470A78002AFAD183
S3150000FFC0002A7FF463AFD3F88C2042F48022C3F872
S3150000FFD08C20D3F88C2042F40022C3F88C20D3F86E
S3150000FFE08C2042F48012C3F88C20D3F88C2042F483
S3150000FFF00032C3F88C20D3F88C20C87A003018BFA2
S31500010000012022F4803242EA0042C3F88C2060E7E4
S31500010010002AD8D101207047C8F80100032801D968
S3150001002000BEFEE730B4244B53F82030C8B211F4B9
S31500010030007F04D01A6822F400721A601A6811F45B
S31500010040807F10D05A6F22F081025A675A6F22F0D0
S3150001005082025A675A6F22F084025A675A6F22F057
S3150001006088025A675A6F11F4806F04D01A6822F019
S3150001007080021A601A6811F4006F03D0DA6E22F05A
S315000100808002DA660022012405E000BEFEE7400890
S315000100900132082A0DD010F0010FF8D0D1B207298C
S315000100A0F3D8196D04FA02F521EA05011965196DEE
S315000100B0EDE730BC704700BFC8F80100032801D93D
S315000100C000BEFEE710B582B0184B53F8203000226F
S315000100D00192174A52F820200AB900BEFEE71B68B2
S315000100E003F0070301249C401378022B10D0032B45
S315000100F006D0012B11D101A90020FEF737FC04E03F
S3150001010001A90C4B185CFEF731FC40B100BEFEE7BD
S3150001011001A91A20FEF72AFCF7E70020F5E7E4B269
S315000101200198B0FBF4F002B010BD00BFC8F80100A1
S3150001013038000020D8F80100032801D900BEFEE7E7
S3150001014009B900BEFEE70AB900BEFEE7F8B58C7B29
S31500010150631EDBB2022B01D900BEFEE7354B53F815
S315000101602050354B53F82030002B35D11470537085
S315000101709380314B43F8202002F10C0402F11C0755
S3150001018002F15C0E02F13C0C3E46002324F8023BD0
S3150001019046F8043B4CF8043B0EF8013BBC42F5D152
S315000101A014460F460646284600F080F8797B284615
S315000101B000F070F83046FFF781FFA06070B900BE0D
S315000101C0FEE7002416E02B6823F480732B601B4B9B
S315000101D09857FEF713FC2BE0012429E03A7B931E86
S315000101E0DBB2022B01D9082AEBD139463046FFF79B
S315000101F031FE0446EA6E7B7C9B0103F0400322F04C
S3150001020040021343EB66D5F88420FB7B9B01DBB2EE
S3150001021022F0C0021343C5F884303B7C002BD2D0B8
S315000102202B6843F480732B60044B9857FEF7D2FB7F
S315000102302046F8BDC8F8010038000020FCF801008E
S31500010240032801D900BEFEE709B900BEFEE7044B4B
S3150001025053F820309868B0FBF1F080B2704700BFC8
S31500010260380000200B46032801D900BEFEE7084AE4
S3150001027052F820104A68120C12044A608A6DDB019A
S31500010280DBB222F0800213438B650020704700BF6A
S31500010290C8F80100436D43F001034365036823F089
S315000102A0070301F007010B430360704710B4436F66
S315000102B0002343670422426502680360436083604A
S315000102C0C364026D03658365C3650366436683661E
S315000102D0C26EC36603678367C367C0F88030C0F820
S315000102E08430C0F88830C0F88C30C0F89030C0F83F
S315000102F09430C0F89830C0F89C30194600EBC30220
S31500010300D468D16011610133082BF7D15DF8044B34
S315000103107047072901D900BEFEE701290DD9052934
S3150001032099BF0239012306394FF480738B403AB9DC
S31500010330C26E22EA0303C366704710238B40F6E7B9
S31500010340C26E1343C3667047032901D900BEFEE797
S3150001035001290DD021B1022912D0032919D07047E4
S31500010360836F23F00F0302F00F021A43826770476F
S31500010370816F1301DBB221F0F002134383677047EB
S31500010380816F130203F4706321F470621343836770
S315000103907047816F13039BB221F470421343836745
S315000103A070470000F8B5474B53F820406378012B9E
S315000103B002D0082B00D0F8BD032801D900BEFEE704
S315000103C003298CBF002201220AB900BEFEE73E4B7B
S315000103D053F820004B00DBB20AB900BEFEE7456EBA
S315000103E0C900042202FA01F1294248D0072B8CBF29
S315000103F04FF0000C4FF0010CBCF1000F01D100BE13
S31500010400FEE700EBC30632691FFA82FE591CC9B228
S3150001041007298CBF002701270FB900BEFEE700EBB5
S31500010420C1010A6992B2964504EB4305A2EB0E029D
S3150001043024BFB4F802E07244AA81BCF1000F01D1D5
S3150001044000BEFEE7F26822F08002F260F2680FB9A0
S3150001045000BEFEE7CA6822F08002CA60CA688268E6
S31500010460628004EB8301CA6B002AA4D0234493F86B
S315000104705C30002B9FD0C969002090479BE7072B72
S3150001048001D900BEFEE75A1C00EBC202526812F007
S31500010490800F04BF0133DBB2072B8CBF0021012182
S315000104A009B900BEFEE700EBC302166904EB43057A
S315000104B0AE8109B900BEFEE7D16821F08001D160A5
S315000104C0D268CCE738000020C8F80100032801D91A
S315000104D000BEFEE709B900BEFEE74B880BB900BEB8
S315000104E0FEE72DE9F04F83B0A44B53F82050A44BFF
S315000104F053F82070002F00F06A817B784BB1032BF3
S3150001050027D0082B25D04FF00108404603B0BDE89F
S31500010510F08F2B6823F018032B60EB6C1B0C1B046C
S31500010520EB64AB681B0C1B044A881343AB602B6856
S3150001053023F020032B60AB687B800B78002B00F047
S3150001054094810E4601904FF000098E4B03EBC00BD0
S3150001055051E008237B70EEE7002221462846FFF78B
S31500010560F3FE736853445A78002A6ED1B8F1030F2B
S3150001057063D86B6E4FEAC808042202FA08F223EA2E
S3150001058002036B66072C8CBF00210121002956D07E
S3150001059005EBC403DA6822F01002DA60DA6822F0A9
S315000105A02002DA60726852449278002949D0D3F861
S315000105B00CC0900000F004002CF0040C40EA0C0082
S315000105C0D860D868920002F0080220F008000243C1
S315000105D0DA60002937D0DA6842F04002DA601BF9A6
S315000105E00400FEF7F7F909F101095FFA89F9337891
S315000105F04B4540F23A814FEA091A736803EB0A0246
S3150001060013F80A404FEA5408936807EB8402D36152
S3150001061073685344DB68D3633B19012283F85C207A
S31500010620032C9ED8736853449A79002A94D01A7978
S3150001063021462846FFF788FE93E700BEFEE700BE87
S31500010640FEE700BEFEE700BEFEE7012ACBD1D97860
S31500010650D87914F0010F01D000BEFEE7474B019A8D
S3150001066053F82230B8F1030F8CBF4FF0000C4FF056
S31500010670010CBCF1000F01D100BEFEE75A6E4FEA34
S31500010680C8084FF0040E0EFA08FE4EEA02025A6638
S31500010690BCF1000F01D100BEFEE7D3F864C0082209
S315000106A002FA08F242EA0C025A66B0B1072C01D9E5
S315000106B000BEFEE703EBC402D06840F01000D06034
S315000106C0D06840F02000D060032900F09380012912
S315000106D031D1072C7ED900BEFEE7072C01D900BE19
S315000106E0FEE703EBC402D06820F01000D060D068AA
S315000106F040F02000D060E7E703EBC202D16821F0A9
S315000107000401D160D16841F00801D1604FF00008C1
S31500010710621CD2B2072A37D900BEFEE703EBC2023A
S31500010720D16841F00401D160D16821F00801D1609E
S315000107304FF00008ECE7042900F0848002297DD0FF
S315000107404FF00108E4E703EBC202D16841F004016E
S31500010750D160D16821F00801D1604FF00008D7E7D8
S3150001076003EBC202D16821F00401D160D16841F0E6
S315000107700801D1604FF00008CAE700BFC8F80100C0
S3150001078038000020DCF8010003EBC203DA6842F00E
S315000107904002DA601BF90400FEF71CF9B8F1000FFC
S315000107A03FF421AF7B78082B7FF4AFAE03237B7038
S315000107B0ABE601237B702A683B78DB0003F0180364
S315000107C022F0180213432B604FF000089DE64FF00C
S315000107D001089AE603EBC402D16841F00401D16035
S315000107E0D16821F00801D160621CD2B2072A95D9DD
S315000107F000BEFEE7072C3FF66EAF03EBC402D168DD
S3150001080041F00401D160D16821F00801D160621C78
S31500010810D2B2072A7FF670AF00BEFEE703EBC40231
S31500010820D16821F00401D160D16841F00801D1609D
S31500010830621CD2B2072A93D900BEFEE7072CEDD976
S3150001084000BEFEE7072CFBD803EBC402D16821F0FA
S315000108500401D160D16841F00801D160621CD2B2B5
S31500010860072A7FF670AF00BEFEE77B78002BA0D08B
S315000108704FF0000849E600BF032801D900BEFEE794
S31500010880072901D900BEFEE7044B53F820301BB1FE
S3150001089003EB410398897047002070473800002018
S315000108A008B500210846FFF77DFD08BD08B5012101
S315000108B00020FFF777FD08BD08B502210020FFF7EC
S315000108C071FD08BD08B503210020FFF76BFD08BDCA
S315000108D008B500210120FFF765FD08BD08B5012116
S315000108E00846FFF75FFD08BD08B502210120FFF7A5
S315000108F059FD08BD08B503210120FFF753FD08BDC9
S3150001090008B500210220FFF74DFD08BD08B50121FC
S315000109100220FFF747FD08BD08B502210846FFF78B
S3150001092041FD08BD08B503210220FFF73BFD08BDC7
S3150001093008B500210320FFF735FD08BD08B50121E3
S315000109400320FFF72FFD08BD08B502210320FFF79D
S3150001095029FD08BD08B503210846FFF723FD08BD9B
S315000109602DE9F047BDF820C0032801D900BEFEE7F6
S3150001097007298CBF4FF0000E4FF0010EBEF1000F9C
S3150001098001D100BEFEE74C08544D55F82060544D88
S3150001099055F82070B568ADB27878042824D16D0079
S315000109A0ADB2002052BBB3F5004F00F28D80BCF50D
S315000109B0004F00F28C8005FB03F2C2F3CF3205FB38
S315000109C00CFCCCF3CF3CB3F5004F1ED1531C9BB2AC
S315000109D0C8B9032C8CBF4FF000094FF00109B9F1DA
S315000109E0000F14D100BEFEE7032801D0082803D169
S315000109F00135ADB20020D5E70120D3E79D4269D389
S31500010A006545E5D20120BDE8F0871346E0E7D6F853
S31500010A1064A04FEAC408012202FA08F212EA0A0F98
S31500010A2039D0B9F1000F01D100BEFEE7716E802207
S31500010A3002FA08F20A4213D0326812F0180F08D1EE
S31500010A406200072A01D900BEFEE7013206EBC202A7
S31500010A50936063000133DBB2072B0BD900BEFEE7BF
S31500010A606200072A01D900BEFEE7013206EBC20287
S31500010A709360EEE7013306EBC303C3F808C0B26D1A
S31500010A809DF82430DB01DBB222F080021343B3650B
S31500010A90BD80BDE8F087326812F0200F0AD05B08EE
S31500010AA0BEF1000F01D100BEFEE74A1C06EBC202F1
S31500010AB09360E4E7BEF1000F01D100BEFEE74A1CD8
S31500010AC006EBC2029360DAE70120BDE8F087012058
S31500010AD0BDE8F0870120BDE8F08700BFC8F8010036
S31500010AE038000020032801D900BEFEE709B900BE7F
S31500010AF0FEE72DE9F04F85B0AB4B53F82080AB4BA9
S31500010B0053F82040B8F1000F00F0FF8398F8013048
S31500010B10002B40F0FC830D460290236823F0180356
S31500010B202360236823F4007323602368636D43F015
S31500010B30040363658B7888F801300B78002B00F08D
S31500010B405681CB681E7871085B79072E8CBF002011
S31500010B50012008B900BEFEE70027BA464FF0010999
S31500010B604FF0020BDFE0226F09FA06F31343236706
S31500010B70E2E008B900BEFEE704EBC603DA6842F01C
S31500010B800402DA60DA6822F00802DA60E8E000BE00
S31500010B90FEE7A3B1626ECB004FF0100C0CFA03F323
S31500010BA013436366731CDBB2072B8CBF4FF0000C3B
S31500010BB04FF0010CBCF1000F0BD100BEFEE7636ED6
S31500010BC0CA004FF0100C0CFA02F223EA0203636624
S31500010BD0E8E704EBC302D2F80CE02EF0040EC2F8EB
S31500010BE00CE0D2F80CE04EF0080EC2F80CE0032936
S31500010BF001D900BEFEE7D4F864E0CA000BFA02F29E
S31500010C0042EA0E026266EA683A4492F807E0BEF1E9
S31500010C10010F40F0B5805279BCF1000F01D100BE41
S31500010C20FEE7002A40F0A680226F09FA03F322EAC2
S31500010C300303236703298CBF00230123002B00F044
S31500010C40C380626EC9004FF0040C0CFA01FC22EA63
S31500010C500C026266002B00F0B980626E09FA01FC93
S31500010C6022EA0C026266002B00F0B280626E4FF03F
S31500010C70800C0CFA01FC22EA0C026266002800F0E4
S31500010C80A98004EBC602D06840F01000D060D0689D
S31500010C9040F02000D0606A69D278002B00F09C8079
S31500010CA0002A00F09B80606E40228A400243626601
S31500010CB0002B00F09A80626E202303FA01F10A43A9
S31500010CC06266EB683B441A7931462046FFF721FB01
S31500010CD0226806F1100309FA03F313432360EB6854
S31500010CE03B449B793BB12268731CDBB2103309FA92
S31500010CF003F3134323600AF1010A5FFA8AFA2B7898
S31500010D00534574D90AEB8A014B001F46EA6813441E
S31500010D1012F8116071085B79072E8CBF0020012043
S31500010D2000283FF417AF002B7FF41DAF236F09FA9C
S31500010D3006F223EA02032367EB683B445A795B78A0
S31500010D409A423FF416AF00283FF421AF04EBC603E5
S31500010D50DA6822F00402DA60DA6842F00802DA6040
S31500010D60EB683B449A791AB31B7A07297FF611AFD0
S31500010D7000BEFEE7226F09FA03F31343236759E71F
S31500010D805279BCF1000F01D100BEFEE732B1226FEC
S31500010D9009FA03F322EA030323674BE7226F09FAF1
S31500010DA003F31343236745E738000020C8F8010021
S31500010DB0032901D900BEFEE7636ECA000BFA02F2EF
S31500010DC023EA0203636635E700BEFEE700BEFEE7DF
S31500010DD000BEFEE700BEFEE700BEFEE7626E4020F3
S31500010DE0884022EA0002626662E700BEFEE79D4B8A
S31500010DF0029A53F822606B78002B00F07A812B69F6
S31500010E001A784FEA520C12F0010F11D15B7B072AB7
S31500010E108CBF0020012020BB00BEFEE7039B1F0103
S31500010E202B69D919DA5D4FEA520C12F0010F01D084
S31500010E3000BEFEE74B7B072A8CBF0020012000285D
S31500010E40EAD09BB9336F09FA02F123EA010333674A
S31500010E502B693B44597B1B7A99421FD160B900BE6D
S31500010E60FEE7002703974FF00109EAE7316F09FA18
S31500010E7002F30B433367EBE706EBC203D96841F094
S31500010E800401D960D96821F00801D960BCF1030FCA
S31500010E908CBF0021012179B900BEFEE708B900BE69
S31500010EA0FEE706EBC203D96821F00401D960D968CF
S31500010EB041F00801D960E9E7D6F864E04FEACC03CE
S31500010EC04FF0040A0AFA03FA2EEA0A0EC6F864E09B
S31500010ED008B900BEFEE706EBC200D0F80CE04EF002
S31500010EE0100EC0F80CE0D0F80CE04EF0200EC0F861
S31500010EF00CE0D6F800E002F1100009FA00F040EA31
S31500010F000E0030602869384490F809E0BEF1000F00
S31500010F1058D002F1010E5FFA8EFE807BBEF1070FFB
S31500010F208CBF4FF0000A4FF0010ABAF1000F01D150
S31500010F3000BEFEE750B9306F09FA0EFB20EA0B003E
S31500010F403067BAF1000F09D100BEFEE7D6F870B0DE
S31500010F5009FA0EF040EA0B003067F2E706EBCE0025
S31500010F60D0F80CA02AF0040AC0F80CA0D0F80CA006
S31500010F704AF0080AC0F80CA02869384490F80EB067
S31500010F8090F80DA0D3452ED190F80AA0BAF1000F22
S31500010F901ED18079012801D100BEFEE709B900BE44
S31500010FA0FEE7706E4FF0020A0AFA03FA20EA0A0017
S31500010FB07066D6F800A00EF1100009FA00F040EABA
S31500010FC00A0030606869C07800292DD100BEFEE7AD
S31500010FD009B900BEFEE7D6F864A00220984040EAAF
S31500010FE00A007066E5E790F80AA0BAF1000F0AD187
S31500010FF009B900BEFEE7D6F864A00220984040EA8F
S315000110000A007066D5E78079012801D100BEFEE7A6
S3150001101009B900BEFEE7706E4FF0020A0AFA03FA3A
S3150001102020EA0A007066C4E748B1D6F864E04020B9
S31500011030984040EA0E00706651B900BEFEE7706E38
S315000110404FF0400E0EFA03FE20EA0E007066F3E73B
S31500011050D6F864E02020984040EA0E00706619B97F
S3150001106000BEFEE7C8F80100D6F864E009FA03F00D
S3150001107040EA0E00706628693844C07909B900BE95
S31500011080FEE760B1706E802199400143716629695E
S3150001109039448979BCF1070F08D900BEFEE7716EA4
S315000110A08020984021EA00017166F0E7002953D0BB
S315000110B0706E102101FA03F30343736602F0FE0A10
S315000110C02B693B44DA7A51463046FFF722F92B6900
S315000110D03B440AF101011A7BC9B23046FFF719F9FF
S315000110E0039B0133DBB21A4603936B7893423FF6B7
S315000110F095AE636D43F0020363656B69DA78002A86
S315000111007CD01B78002B2FD0E36F43F40043E367B9
S31500011110E26F6B699B781B0203F4706322F47062C1
S315000111201343E367029B042B34BF4FF0040C4FF0CB
S31500011130020C04260020012703466A6900EB4001E0
S315000111400A441279002A43D0C2B2032A8CBF002274
S31500011150012272B900BEFEE7716E102000FA03F398
S3150001116021EA03037366A9E7E36F23F40043E36708
S31500011170CEE7E16F07FA00FE41EA0E01E167696910
S3150001118000EB4009494449790AB900BEFEE771B14D
S31500011190D4F87C9007FA06F141EA0901E167696929
S315000111A003EB43030B449B7942B900BEFEE7E16FB3
S315000111B007FA06F921EA0901E167F0E7012BD4F8FC
S315000111C088300CBF23EA0E0343EA0E03C4F88830C5
S315000111D001300136C3B29C45AED86B695B781BB151
S315000111E0636D43F080036365626D6B69DB785B0158
S315000111F003F0600322F06002134363652368AA7853
S31500011200042A14BF0022012223F0200343EA4213D9
S315000112102360A9680298FFF713F8A8F80400E36CA5
S315000112201B0C1B04E364AB78042B3BD1A368B8F811
S3150001123004201B0C1B0443EA5203A3602B78002BEA
S3150001124067D00026374606EB8601EA6802EB4103C2
S315000112505B8812F81110019700973A460298FFF73A
S315000112607FFB0136F6B22B78B342ECD86B7893B19B
S31500011270002637463101286942185388415C019797
S31500011280928800923A460298FFF76AFB0136F6B257
S315000112906B78B342EED8002833D1EA783F2A0BD9CE
S315000112A000BEFEE7A268B8F80430013B9BB2120CFF
S315000112B012041343A360C1E7A36E23F03F0302F0B8
S315000112C03F021343A366A26E2B799B01DBB222F088
S315000112D0C0021343A366636D43F001036365636D47
S315000112E043F008036365226898F80030DB0003F0D9
S315000112F0180322F0180213432360002005B0BDE84D
S31500011300F08F002388F80130F8E70120F6E7012085
S31500011310F4E76B78002BABD1BFE700BF032801D9F7
S3150001132000BEFEE7072901D900BEFEE70A4B53F8C6
S31500011330200042B102681031012303FA01F10A4388
S3150001134002600020704703681031012202FA01F1A0
S3150001135023EA01030360F4E7C8F8010009B900BEF6
S31500011360FEE770B40C4608B900BEFEE7C56D4668D7
S3150001137006F00F060121B14089B205F00705A94221
S3150001138004D903EB0223036670BC7047A17A0429D2
S3150001139001D900BEFEE76254621853710131A17290
S315000113A0F2E709B900BEFEE770B50C4608B900BE02
S315000113B0FEE71646054691F82430EBB10B8CDB09A6
S315000113C003F00603103B03F0FE030422FFF7C6FFFA
S315000113D094F82030002221462846FFF7BFFF9EB130
S315000113E0238CDB0903F006030F3BDBB20422214603
S315000113F02846FFF7B3FF70BD91F8203002EB430397
S31500011400DBB20422FFF7AAFF70BD0B46003118BFFD
S31500011410012109B900BEFEE708B900BEFEE730B4F6
S31500011420C26D02F00702456805F00F050124AC40C4
S31500011430A4B209B900BEFEE79D7AD97A8D4203D1DD
S31500011440996909B1A24201D330BC70475A69127831
S3150001145002665A6901325A619A69013A9A61C26D04
S3150001146002F00702ECE70B4609B900BEFEE708B930
S3150001147000BEFEE7D0F8182122F4706222F00702BE
S31500011480C0F81821CA7E3AB98A689AB1D0F81C21E7
S3150001149022F00202C0F81C21D0F8102122F001022C
S315000114A0C0F8102100229A701A619A60DA605A60B7
S315000114B0DA757047D0F81C2122F00102C0F81C2110
S315000114C0EAE709B900BEFEE7F8B50D4608B900BE60
S315000114D0FEE71F4616460446836923F4E05323F0CC
S315000114E00303836191F827304BB991F82800FDF782
S315000114F057FD2B69CBB1E36923F00203E3613FB1E9
