S0250000416E6369745F464F54415F536D617274576865656C735F76325F315F342E737265638F
S31500000000007000201104000079040000790400004B
S315000000107904000079040000790400000000000063
S31500000020000000000000000000000000790400004D
S31500000030790400000000000079040000BD320000D1
S31500000040E5200000EF200000F92000000321000059
S315000000500D21000017210000212100002B210000A6
S31500000060352100003F2100004921000053210000F6
S315000000705D21000067210000712100007B21000046
S31500000080852100007904000079040000790400004D
S315000000907904000079040000790400007904000066
S315000000A07904000079040000790400007904000056
S315000000B07904000079040000790400007904000046
S315000000C07904000079040000790400007904000036
S315000003F0790400007904000079040000FFFFFFFF84
S31500000400FFFFFFFFFFFFFFFFFFFFFFFFFE7FFFFF77
S3150000041072B64FF000014FF000024FF000034FF0AC
S3150000042000044FF000054FF000064FF00007B846F5
S31500000430B946BA46BB46BC460A490B4A521A013A65
S3150000044005DD0020042308601944043AFBDA074856
S315000004508546074880470748804762B603F0E8F8B4
S31500000460FEE700000080FF1F0070002000700020E3
S315000004706D060000A5060000FFF7FEBF70B54FF43D
S3150000048040444FF48056064D3146204600F084F82D
S31500000490288004F58054B4F5F62FF5D170BD00BF61
S315000004A01400002010B54FF400614FF0805000F0AA
S315000004B073F8074C102221684FF0805000F082F844
S315000004C0226810214FF0805000F0BEF810BD00BF2A
S315000004D01000002008B5064B1A68002111601B6841
S315000004E05A6801325A609960FFF7DCFF08BD00BF09
S315000004F01000002008B500F03DF8194D2A461021DD
S315000005004FF0805000F0A0F8164C256002F0FCFE7B
S3150000051023681B68012B15D0B3F1FF3F03D04FF4BE
S31500000520404003F075F8FFF7A9FF0F4C02F0A8FF53
S3150000053002F002FF2378002BF8D0FFF7CBFF00F084
S31500000540A5F8F3E7094B412283F80E214F2283F8E1
S315000005500F214B2283F810210122054B1A70E2E786
S3150000056000000020100000201C0200207400002063
S315000005701D02002010B5064C2146064801F016FE65
S315000005804FF0FF33A361003018BF012010BD00BF3C
S31500000590180000207C38000038B504460D4672B6B7
S315000005A00A460146064801F073FE10B1012062B604
S315000005B038BD01232A092146014801F0B5FEF6E7B8
S315000005C01800002008B50B4672B60146034801F034
S315000005D0E1FE62B6B0FA80F0400908BD18000020BE
S315000005E070B5A0B0064615461C4672B60B460146C7
S315000005F0144801F0CFFE2A463146684603F030F82B
S31500000600F2B202EB16629DF890301A44C6F3074325
S315000006101A44C6F30726324455B1002320A91944CB
S3150000062011F8801C0A440133DBB299B28D42F5D829
S31500000630D0B262B6C043C0B2A04214BF00200120AF
S3150000064020B070BD1800002069B130B40D460021FD
S315000006500B46445C545401339BB21946AB42F8D363
S31500000660002030BC7047002070470000054B064A4A
S315000006705A605A6842F220121A604FF6FF729A6068
S31500000680704700BF0020054020C528D94FF0E02163
S31500000690D1F80C2D92B2024B1343C1F80C3D7047B2
S315000006A00400FA05254B264A9A4208D013462348E9
S315000006B0244A13F8011B02F8011B9842F9D1224B78
S315000006C0224A9A4208D013461F48214A13F8011BB2
S315000006D002F8011B8342F9D11E4B1F4A9A4206D0EB
S315000006E0134600211B4A03F8011B9342FBD11B4B07
S315000006F01B4A9A4208D0134618481A4A13F8011B97
S3150000070002F8011B8342F9D1174B184A9A4211D0BD
S3150000071010B4174CA40808D01946002351F8040B4E
S3150000072042F8040B0133A342F8D1124B0F4A1A6068
S3150000073010BC70470F4B0C4A1A607047B83A00005D
S31500000740B03800000084FF1FF03A0000B83A0000FD
S315000007500886FF1F5C02002000000020F03A00001F
S31500000760F03A000000000020000000000080FF1F9B
S315000007700004000008ED00E0074B5B69DBB2042BC8
S3150000078006D0802B06D0012B0CBF01200420704719
S31500000790022070470320704700E00740044BD3F85F
S315000007A0003113F0807F1ABF024B18680020704793
S315000007B0004006405400002010B584B00B460029C6
S315000007C03BD0444AD2F8002112F0007F7DD1414A45
S315000007D0D2F8001121F40001C2F800114FF0806137
S315000007E0C2F8001100213C4A1160002870D05A7AE4
S315000007F0120202F4E062197A01F007010A43354851
S31500000800C0F80421DA79120102F030029979C900A0
S3150000081001F008010A435979890001F004010A43ED
S31500000820C0F808211A79012A29D0E2B1022A32D069
S315000008301A68294B1A60294C3BE000238DF80430D6
S315000008408DF80C3001228DF808208DF809208DF8DE
S3150000085005208DF8063002238DF8073004AB204AB8
S3150000086043F8102DADE71A7B002A14BF4FF400029F
S31500000870002242F001021749C1F80021D8E71A7B8D
S31500000880002A14BF4FF40002002242F0011211495F
S31500000890C1F80021CCE71A7B002A14BF4FF40302EB
S315000008A04FF4403242F001020A49C1F80021BFE785
S315000008B0013CFFF773FF18B9002CF9D1032005E0BE
S315000008C0002C14BF0020032000E0022004B010BD5D
S315000008D00020FBE7004006405400002088E7300077
S315000008E000127A00084BD3F8003213F0807F09D04B
S315000008F0054BD3F8083203F00103002B034808BF69
S3150000090000207047002070470040064000127A0021
S3150000091010B582B00B46002938D02D4AD2F80022F5
S3150000092012F0007F4FD12A4AD2F8001221F40001BA
S31500000930C2F800120021C2F80012002846D09A78A8
S31500000940120202F4E062597801F007010A432049D5
S31500000950C1F804221A7802F00102C1F80822597976
S315000009609A791B79002B14BF03230123002914BF96
S31500000970042100210B43002A14BF4FF40002002279
S315000009801343134AC2F80032642410E000238DF8A2
S31500000990043001228DF805208DF806308DF80120EF
S315000009A08DF8022002AB03F8082DB6E7013CFFF7ED
S315000009B099FF18B9002CF9D1032005E0002C14BFCB
S315000009C00020032000E0022002B010BD0020FBE75B
S315000009D000400640054BD3F8003313F0807F1DBF5F
S315000009E0024BD3F808330248002070470040064007
S315000009F0006CDC0210B582B00B46002932D0294AC1
S31500000A00D2F8002312F0007F47D1264AD2F800130D
S31500000A1021F40001C2F800134FF08061C2F8001300
S31500000A2000283DD09A78120202F4E062597801F06B
S31500000A3007010A431B49C1F804231A7802F003028E
S31500000A40C1F808239A795B79002B14BF0123092387
S31500000A50002A14BF4FF4000200221343C1F80033EA
S31500000A6064240EE001238DF8053000228DF806205F
S31500000A708DF801308DF8023002AB03F8082DBEE781
S31500000A80013CFFF7A7FF18B9002CF9D1032005E0B8
S31500000A90002C14BF0020032000E0022002B010BD8D
S31500000AA00020FBE70040064008B50F4BD3F80036A0
S31500000AB013F0807F02D10023184608BDFFF76EFEB3
S31500000AC003460028F8D00849D1F80826C2F30222C6
S31500000AD00132B0FBF2F3D1F80826C2F30442103219
S31500000AE003FB02F35B08E7E70040064010B584B05D
S31500000AF00C4699B13D4BD3F8003613F0007F72D106
S31500000B003A4BD3F8002622F40002C3F800264FF031
S31500000B108062C3F80026A0B9002065E000238DF8A6
S31500000B2004308DF80B3001228DF808208DF809204D
S31500000B308DF8053007228DF806208DF8073001ACB8
S31500000B40D8E7FFF72BFE63791B0203F4E0632279F3
S31500000B5002F0070213432549C1F8043663781B02E5
S31500000B6003F4E063A278120402F4F8121343C1F806
S31500000B7008362378012B16D04BB1022B1FD04FF429
S31500000B807A74FFF791FF48BB34B3013CF9E7E37988
S31500000B90002B14BF4FF40003002343F00103134A54
S31500000BA0C2F80036EBE7E379002B14BF4FF40003DD
S31500000BB0002343F001130D4AC2F80036DFE7E3795C
S31500000BC0002B14BF4FF403034FF4403343F00103EB
S31500000BD0064AC2F80036D2E7032005E0002C14BF0F
S31500000BE00020032000E0022004B010BD00400640B3
S31500000BF02DE9F04180460D468C7801344E7806FB8F
S31500000C0004460F7807FB0447CB78022B18D006D989
S31500000C10032B18D0062B19D1FFF746FF03E0012B53
S31500000C2014D1FFF7BBFD0009B8F1020F47D0B8F1A8
S31500000C30030F78D0B8F1010F0AD00020BDE8F0818B
S31500000C40FFF750FEEFE7FFF7C5FEECE70020EAE707
S31500000C50EA7802EB42015B4B53F821301B0904FB97
S31500000C6003F4A04200F293800B46564901EB83033E
S31500000C705B681B0906FB03F6B04200F28B8002EBB1
S31500000C80420301EB83039B681B0907FB03F7B8428A
S31500000C9000F28380AB781B0403F47023120602F083
S31500000CA0706213432A7802F00F0213436A78120126
S31500000CB0D2B21343444A53610020BDE8F081EA787A
S31500000CC002EB4201414B53F821301B0904FB03F4AC
S31500000CD0A04265D80B463D4901EB83035B681B09BF
S31500000CE006FB03F6B0425ED802EB420301EB830338
S31500000CF09B681B0907FB03F7B84257D8AB781B0460
S31500000D0003F47023120602F0706213432A7802F08D
S31500000D100F0213436A781201D2B213432A4A93612F
S31500000D200020BDE8F081EB7803EB4301284A52F836
S31500000D302120120904FB02F4A0423AD80A462449AB
S31500000D4001EB82025268120906FB02F6B04233D862
S31500000D5003EB430201EB82029268120907FB02F7DA
S31500000D60B8422CD8AA78120402F470221B0603F0AB
S31500000D70706313432A7802F00F0213436A78120154
S31500000D80D2B21343104AD3610020BDE8F08101209E
S31500000D90BDE8F0810120BDE8F0810120BDE8F081C9
S31500000DA00120BDE8F0810120BDE8F0810120BDE809
S31500000DB0F0810120BDE8F0810120BDE8F08101202D
S31500000DC0BDE8F0817037000000400640C4370000DF
S31500000DD01C37000038B50546FFF7CEFC2946FFF75D
S31500000DE007FF044658B9E8780A220849013A0B6910
S31500000DF0C3F30363984204D0002AF7D103242046A4
S31500000E0038BD002A08BF0324F9E700BF00400640AA
S31500000E1010B504461B4B1B69C3F30363022B19D0A1
S31500000E2006D9032B19D0062B1AD1FFF73DFE03E096
S31500000E30012B15D1FFF7B2FC124B1B69C3F3034319
S31500000E400133B0FBF3F0012C0CD0D4B1022C11D03D
S31500000E50002010BDFFF746FDEEE7FFF7BBFDEBE711
S31500000E600020E9E7074B1B69C3F303130133B0FB0B
S31500000E70F3F010BD034B1B6903F00F030133B0FB06
S31500000E80F3F010BD0040064008B5104B1B6AC3F3D3
S31500000E900363022B11D005D85BB1012B13D1FFF7E9
S31500000EA07DFC08BD032B0BD0062B0CD1FFF7FCFDF8
S31500000EB008BD0220FFF7ACFF08BDFFF713FD08BD14
S31500000EC0FFF788FD08BD002008BD00BF00400640B2
S31500000ED008B541B1012933D00020024610B1431EA6
S31500000EE022FA03F008BD052818D00CD906281ED012
S31500000EF0072852D1FFF7D8FD02462B4BD3F804063C
S31500000F0000F00700EAE7042847D1FFF7EBFC0246AA
S31500000F10254BD3F8040200F00700DFE7FFF75AFD80
S31500000F200246214BD3F8040300F00700D6E7FFF78B
S31500000F3035FC02461C4BD3F8040100F00700CDE750
S31500000F40052818D00CD906281ED0072828D1FFF767
S31500000F50ABFD0246144BD3F80406C0F30220BDE7EE
S31500000F6004281DD1FFF7BEFC02460F4BD3F804023E
S31500000F70C0F30220B2E7FFF72DFD02460A4BD3F875
S31500000F800403C0F30220A9E7FFF708FC0246064B5C
S31500000F90D3F80401C0F30220A0E7002002469DE733
S31500000FA0002002469AE700BF0040064008B5114BF4
S31500000FB01B69C3F30113012B0BD02BB1022B11D0EC
S31500000FC0032B12D0002008BD00210620FFF780FF6A
S31500000FD008BD084B186900F00200002818BF4FF43E
S31500000FE0FA4008BD044B186808BD00210520FFF72C
S31500000FF06FFF08BD0080044034000020114B1B69C0
S31500001000C3F38103022B07D0032B0ED0002B0CBF9A
S315000010104FF4FA30002070470A4B186900F00200BE
S31500001020002818BF4FF4FA407047064B186910F0B5
S31500001030020006D0186900F00100002818BF4FF41E
S315000010407A7070470080044008B5294B5B6813F43A
S31500001050006F4AD0264B5B68C3F30313072B35D0CA
S315000010600AD90A2B3ED017D8082B33D0092B1AD110
S315000010700120FFF7CDFE17E0022B1DD008D9042B67
S315000010801FD0062B0FD101210520FFF721FF0BE012
S315000010904BB9FFF7F9FE07E00C2B20D00E2B02D13F
S315000010A0FFF784FF00E00020114B5B68C3F30223C7
S315000010B00133B0FBF3F008BD01210620FFF708FF5E
S315000010C0F2E701210420FFF703FFEDE70020FFF719
S315000010D09FFEE9E701210720FFF7FAFEE4E7FFF7A5
S315000010E08DFFE1E74FF4FA30DEE7002008BD00BFD0
S315000010F00080044010B50C461C286FD022D8182852
S3150000110055D010D816283ED047D8152840F0A780CD
S315000011105F4BDB68C3F30163022B00F2AB805D4AD1
S3150000112052F8233005E01A284AD04DD8FFF78CFF35
S3150000113003460020002B00F09580002C00F0A680CE
S31500001140236010BD20286FD010D81E2858D060D834
S31500001150514B9B78DB0940F097804D4B1B6903F0A0
S315000011600203002B18BF4FF4FA43E2E722286DD0A2
S3150000117063D3232873D1464B1B6C13F001034DD167
S315000011804FF48070D9E7424BDB68C3F38163022BCF
S3150000119072D8404A52F82330CBE73D4BDB68C3F3A5
S315000011A00173022B6AD83B4A52F82330C1E7384B09
S315000011B0DB689B0F022B63D8364A52F82330B8E718
S315000011C0FFF7F4FE0346B4E7334B9B78DB0901D007
S315000011D00023AEE7FFF712FF0346AAE72E4B9B78E4
S315000011E0DB094FD12A4B1B6913F00203A1D0284B10
S315000011F01B6903F00103002B18BF4FF47A7398E7BD
S31500001200254B9B78DB09002B14BF00234FF4FA33E0
S315000012108FE71F4B1B6CC3F3001343B30120FFF78B
S31500001220F7FD0346002085E7194B1B6CC3F3C0038B
S31500001230002BF3D14FF480707FE7154B1B6CC3F383
S315000012408003002BEAD14FF4807076E7104B1B6CBD
S31500001250C3F34003002BE1D14FF480706DE7042007
S31500001260002367E7042818BF4FF4807065E74FF442
S31500001270807062E700235CE700235AE7002358E703
S31500001280002356E7002354E7002352E710BD00BFB2
S31500001290008004403800002000D0074030B583B0FD
S315000012A0002301932F4B33F810309B0003F180434A
S315000012B003F5CA231D68C5F3C0051C6804F00704BE
S315000012C0AC421FD31A6812F0804F1BD01B68C3F3C1
S315000012D00263022B19D008D9032B1BD0062B1ED173
S315000012E00720FFF7F5FD019005E0012B17D1062039
S315000012F0FFF7EEFD01900134019BB3FBF4F405FB0F
S3150000130004440194019803B030BD0420FFF7E0FDCA
S315000013100190F0E70520FFF7DBFD0190EBE73D28A4
S3150000132012D009D93E2815D03F2819D101A9182075
S31500001330FFF7E0FE0024DEE73C2811D101A91520C5
S31500001340FFF7D8FE0024D6E701A91620FFF7D2FE44
S315000013500024D0E701A91720FFF7CCFE0024CAE736
S315000013600024C8E77C360000F0B5A5B028B30446D3
S315000013700646002800F0FF80C54B1B69C3F30363D4
S31500001380032B00F0C680FFF725FB002800F0B8808D
S3150000139003238DF8073000228DF8062001228DF8F0
S315000013A0052024A800F88C3DFFF714FD054600280B
S315000013B000F0AF80284625B0F0BD01238DF80B3034
S315000013C000228DF80C208DF80D308DF80E208DF84A
S315000013D008308DF809308DF80A308DF816308DF802
S315000013E014308DF815208DF80F208DF810308DF8FB
S315000013F011308DF838300D928DF82530A5490691BB
S315000014008DF81C208DF824208DF81D308DF81E20B7
S3150000141002208DF81F008DF820308DF821308DF8D0
S3150000142030308DF828208DF82F208DF829200C21BA
S315000014308DF82A108DF82B208DF82C308DF82D3054
S315000014408DF83D3003218DF83C108DF84B308DF82A
S3150000145041108DF840208DF83F308DF83E308DF8E4
S3150000146045008DF844308DF843208DF84210062053
S315000014708DF849008DF848208DF847308DF84610D4
S3150000148085492291202121918DF84C308DF84D20EF
S315000014908DF84E208DF84F208DF850308DF8543051
S315000014A08DF853308DF852208DF851208DF8783014
S315000014B08DF879308DF87A308DF87B308DF87C3068
S315000014C08DF87D308DF883308DF85830179218924C
S315000014D019921A921B921C921D928DF87E308DF8ED
S315000014E07F308DF880208DF881208DF882208DF850
S315000014F08C308DF88D308DF88E2002AE34463BE769
S3150000150000210120FFF776FA054600287FF452AF46
S315000015103EE73146E078FFF7FBF90546002800F084
S31500001520C380FFF729F9022800F0F880032800F0AD
S31500001530F880012800F0D280002D7FF43BAF002216
S31500001540564B1A6094F8303013B1E26A534B1A6066
S3150000155094F8353053B14E490A6A22F0706294F815
S3150000156034301B0603F0706313430B6294F8433068
S31500001570002B40F0348194F84430E3B194F84550A0
S3150000158094F8463094F847204549486820F40060AE
S315000015904860496821F47F61002D14BF4FF4006054
S315000015A000201B01DBB2120202F4E06213430B437C
S315000015B003433B4A536094F84830DBB194F84A3011
S315000015C094F849203649096921F03F0194F84C0006
S315000015D0014394F84B00002814BF022000209B0012
S315000015E003F00C030B43120102F0300213430343D2
S315000015F02B4A136194F87030002B37D0284B196CA6
S3150000160021F0010194F871200A431A641B6C23F03F
S31500001610020394F87220002A14BF02220022134308
S315000016201F4A1364136C23F0040394F87320002AF2
S3150000163014BF042200221343194A1364136C23F0C7
S31500001640080394F87420002A14BF082200221343CA
S31500001650134A1364136C23F0100394F87520002AC0
S3150000166014BF1022002213430D4A136494F850301D
S31500001670002B00F0FE800B4B626D1A60A26D5A6063
S31500001680E26D9A6004F160000121054DCCE000BFD7
S315000016900040064000127A000084FF1F340000203C
S315000016A0008004403800002004F11001607FFFF73D
S315000016B083F8054600287FF434AF04F1200194F83E
S315000016C02800FFF713FA0546FFF756F8022825D03B
S315000016D0032826D0012801D0002601E004F13606B1
S315000016E0002D7FF429AFF378032B1DD08DF807303A
S315000016F0B3788DF8063073788DF80530337824A8E2
S3150000170000F88C3DFFF766FB054600287FF414AF12
S31500001710E11DA07BFFF76EF905460DE704F13A06D9
S31500001720DEE704F13E06DBE794F828300BBB637F67
S3150000173093BBE378002B42D10125002D7FF4FCAE4C
S31500001740E11DA07BFFF756F9054600287FF4F4AEAD
S31500001750F3788DF80730B3788DF8063073788DF806
S315000017600530337824A800F88C3DFFF733FB054697
S31500001770E2E606238DF8073002238DF806300123B2
S315000017808DF8053024A800F88C3DFFF723FB0546AD
S31500001790637F7BB10128D0D101238DF80730002269
S315000017A08DF806208DF8053024A800F88C3DFFF74B
S315000017B011FB0546E378002BBFD0012DBDD10223D6
S315000017C08DF8073000238DF806308DF8053024A8F3
S315000017D0012300F88C3DFFF7FDFA0546ADE704F15D
S315000017E036010120FFF704FA054600287FF4E2AD32
S315000017F004F13A010220FFF7FBF9054600287FF4C1
S31500001800D9AD04F13E010320FFF7F2F905460028A1
S315000018107FF4D0ADAFE626F04076130603F04073B2
S315000018203343EB600131C9B250F8042BEE684B1E0E
S31500001830DBB2012B09D0002BEDD0022B0CD0032BF1
S3150000184011D0EE600329EDD913E026F04066930629
S3150000185003F040633343E4E726F04056130703F0F2
S3150000186040533343DDE726F0404646EA8272404B5A
S31500001870DA6094F87630EBB13D4A936E00209066BC
S31500001880516821F4805194F878301B0303F4805397
S315000018900B435360906694F877305BB194F87930D7
S315000018A05B0003F00E0394F87A2042F08052134353
S315000018B02F4A936614F17C0F38D0D4F88030002B71
S315000018C034D0E36F93B300212A482B4D01EB8102FC
S315000018D0D4F880309B5C30F813309B0003F18043D2
S315000018E003F5CA231E6826F080461E60D4F88030B1
S315000018F09F189E5CBB781B0603F0E063FA78D20063
S3150000190002F0080213433A7902F0070213437A7889
S31500001910002A14BF4FF080420022134330F81620ED
S3150000192045F822300131E36F9942CFD394F88430E1
S31500001930DBB112498B7803F07F0394F8852082F09F
S31500001940010243EAC213DBB28B7094F98630002B96
S31500001950BCBF20335BB209490A7903F01F0302F0CA
S31500001960E00213430B71002524E5002522E500BFA4
S31500001970008004407C3600000050064000D007403E
S3150000198070B504460D46112807D9232840F29A80DF
S315000019904D2840F29A80042070BD08285CD011D9E9
S315000019A00D2870D02AD80A285FD059D30B2863D0C7
S315000019B00C2840F0848000210520FFF789FA0346B1
S315000019C0002016E0032833D00BD905283AD034D3AB
S315000019D006283CD0072872D1FFF766F80346002098
S315000019E007E0012818D01DD80020FFF711FA03469A
S315000019F00020002D00F0D0802B6070BD0F2850D045
S31500001A0048D3102854D0112859D101210720FFF7B7
S31500001A105FFA03460020ECE70120FFF7F9F90346D9
S31500001A200020E6E70220FFF7F3F903460020E0E78F
S31500001A30FFF70AFB03460020DBE7FEF753FF0346EA
S31500001A400020D6E7FEF7C6FF03460020D1E7FEF7E3
S31500001A50A5FE03460020CCE7504B1B680020C8E7D4
S31500001A60FFF712FA03460020C3E700210420FFF720
S31500001A702FFA03460020BCE701210420FFF728FACD
S31500001A8003460020B5E701210520FFF721FA0346AA
S31500001A900020AEE700210620FFF71AFA03460020D1
S31500001AA0A7E701210620FFF713FA03460020A0E767
S31500001AB000210720FFF70CFA0346002099E70023D0
S31500001AC0042096E7FFF716FB70BD242805D80420EE
S31500001AD00023002D60D02B6070BDA0F13303DBB274
S31500001AE01A2B07D82E4A22FA03F313F0010F18BF58
S31500001AF00420EDD12B4B33F814202B4B53F8223016
S31500001B0013F0804F37D14FF48070E1E70120FFF7E3
S31500001B107FF9034600283AD100234FF48070D8E7B6
S31500001B200020FFF775F903460028F5D02FE00220C4
S31500001B30FFF76EF903460028EED028E016F0080FEE
S31500001B4006D116F0100F0BD100234FF48070C0E7BA
S31500001B5000212046FFF7A2FB034616F0100F04D023
S31500001B6001212046FFF79AFB0346002B14BF0020F5
S31500001B704FF48070ADE70D4B1E5D16F0200FC5D1FA
S31500001B8016F0400FCCD116F0800FD0D1002316F0FE
S31500001B90180FD3D100209CE770BD00BF3400002091
S31500001BA0412100047C360000005006401838000031
S31500001BB010B4044C20602171A2602373637300206B
S31500001BC010BC704744000020F0B583B007460E46AF
S31500001BD08DF804008DF8051000F072FC334B1C7B69
S31500001BE05C7301238DF80630002C4AD000242F4D5B
S31500001BF004E00134E4B22B7BA34242D9AB6853F82C
S31500001C002430002BF5D01A79022AF2D01A68996886
S31500001C1001A890470028ECD06C73002EE9D140F261
S31500001C20031500238DF80630A400204E20E0013471
S31500001C30E4B23B7BA34212D9BB6853F82430002B95
S31500001C40F5D01A79012AF2D01A68996801A8904746
S31500001C500028ECD07C73002EE9D14FF4827500F099
S31500001C6021FC284603B0F0BD043C14F1040FF6D065
S31500001C70B3681B59002BF7D01A68996801A89047DA
S31500001C80F2E70A4D2B6853F82700FFF76DFB6F71DB
S31500001C9005460028C5D102238DF80630034B1B7B71
S31500001CA0002BDCD00024014FC6E700BF4400002013
S31500001CB008B5FFF765FE08BD10B4054B1B6853F861
S31500001CC02040616053F820309A60002010BC7047B5
S31500001CD05800002008B5084B1B6853F8203000F068
S31500001CE00F00064A1077D07723B15A6812B1197BD4
S31500001CF09868904708BD00BF58000020008000404B
S31500001D0038B5054600F00F0400222146094800F0C8
S31500001D1037F9094B1B6853F8253053B1054A147738
S31500001D20D477947701221A735A6812B1197B98688E
S31500001D30904738BD00800040580000202DE9F04F44
S31500001D4087B09DF84080119D012404FA08F45FFADB
S31500001D5084FCB5FBFCF60CFB1656002E14BF4FF0A8
S31500001D60010B4FF0000B03D0584607B0BDE8F08FCB
S31500001D70049303920F46814600F00F06DFF808A190
S31500001D803146504600F001F9DAF8003043F080039E
S31500001D90CAF80030730103F1804202F50040059055
S31500001DA002F5104203991160534441F2100204995E
S31500001DB09950CDF80480CDF8008000231A463146AC
S31500001DC0504600F007F9012F30D0FFB1022F3DD069
S31500001DD0032F4AD02C4C2A463146204600F011F9F2
S31500001DE001223146204600F039F904EB461641F24D
S31500001DF01C02B35A1BB243F002039BB2B352234BED
S31500001E001B6853F8293000221A73ADE7002241F20D
S31500001E1004030599CA5264B2A4B2730103F1804364
S31500001E2003F5004341F214029C52D3E764B2A4B214
S31500001E3041F20403059AD452730103F1804303F57A
S31500001E400043002141F214029952C3E764B2A4B2DE
S31500001E5041F20403059AD452730103F1804303F55A
S31500001E60004341F214029C52B4E7002241F20403FB
S31500001E700599CA52730103F1804303F5004341F209
S31500001E8014015A52A6E700BF008000405800002007
S31500001E9070B582B00446079D01959DF818500095CF
S31500001EA0FFF74CFF054610B1284602B070BD04F09E
S31500001EB00F040F4E089A2146304600F0CFF806EB85
S31500001EC0441641F21C03F35A23F008031B041B0CAF
S31500001ED09DF82420002A14BF08220022134364011F
S31500001EE004F1804404F5004441F21C02A352DBE7EE
S31500001EF00080004008B5012200F00F01024800F002
S31500001F003FF8002008BD00BF0080004008B5002251
S31500001F1000F00F01024800F033F8002008BD00BFB2
S31500001F200080004000F00F0080304001014B195046
S31500001F30704700BF0080004000F00F00400100F134
S31500001F40804000F5004041F21003C1507047000088
S31500001F5008B50A4600F00F01014800F07FF808BDF9
S31500001F600080004008B500F00F01024800F0A4F818
S31500001F7008BD00BF00800040004870470080004058
S31500001F800AB981767047C176704700EB411100238C
S31500001F9041F208028B5001F58052136041F20402AF
S31500001FA08B5241F206028B5241F20C028B5041F2E7
S31500001FB010028B5041F214028B5241F216028B52E0
S31500001FC041F218028B5041F21C028B5241F21E0262
S31500001FD08B52704710B4DB00DCB29DF8083003F07A
S31500001FE00703234343EAC2239DF80420120202F4A6
S31500001FF0E06213439BB2803100EB4111CB8010BCF1
S315000020007047036813F0800F13D010B400EB411330
S3150000201041F208041B59002B11DB00EB41131B593D
S3150000202013F0804F0BD122F0404200EB41100251D9
S3150000203012E000EB411041F20803C250704700EB7A
S31500002040411041F20801435823F47F7323F0030340
S31500002050C2F309021A43425010BC704710B400EB99
S31500002060411441F21E03E35A13F4004F13D100EB5F
S31500002070411141F21E000B5AC2F30E0203F4004353
S3150000208013430B5241F216000B5A03F400431A4352
S315000020900A5210BC704741F21E00235AC2F30802CE
S315000020A003F47E431343235241F21600235A03F4EA
S315000020B07E431A432252ECE700EB411241F21E0323
S315000020C0D35A13F4004F07D100EB411041F2160327
S315000020D0C05AC0F30E00704741F21603D05AC0F33F
S315000020E00800704708B50020FFF7F4FD08BD08B5E5
S315000020F00120FFF7EFFD08BD08B50220FFF7EAFD56
S3150000210008BD08B50320FFF7E5FD08BD08B50420A6
S31500002110FFF7E0FD08BD08B50520FFF7DBFD08BDAC
S3150000212008B50620FFF7D6FD08BD08B50720FFF75E
S31500002130D1FD08BD08B50820FFF7CCFD08BD08B5E0
S315000021400920FFF7C7FD08BD08B50A20FFF7C2FD45
S3150000215008BD08B50B20FFF7BDFD08BD08B50C206E
S31500002160FFF7B8FD08BD08B50D20FFF7B3FD08BDA4
S3150000217008B50E20FFF7AEFD08BD08B50F20FFF726
S31500002180A9FD08BD38B50020FFF7F6FEC56A002494
S3150000219004E06D080134E4B2102C06D015F0010FEE
S315000021A0F7D02046FFF7ACFDF3E738BD03680B60B8
S315000021B043684B6083688B60C3680B6103698B61FE
S315000021C0324BDB6CC3F30333072B3ED00DD90B2BFD
S315000021D047D01DD90D2B4CD047D30E2B4DD00F2BEE
S315000021E04FD14FF48033CB6008E0032B1ED009D8C3
S315000021F0012B13D016D84FF48033CB6000234B61EC
S3150000220000207047052B18D01BD80023CB6010E0A8
S31500002210092B1ED021D80023CB600AE04FF0FF33F4
S31500002220CB60EBE74FF0FF33CB60E7E74FF40043BB
S31500002230CB604FF480534B61E2E74FF0FF33CB6046
S31500002240DCE74FF0FF33CB60D8E74FF0FF33CB60CE
S31500002250D4E74FF0FF33CB60D0E74FF48043CB6039
S31500002260E7E74FF40043CB60E3E74FF48033CB60FE
S31500002270C4E74FF0FF33CB60C0E74FF0FF33CB60CE
S31500002280BCE7CB68B3F5803FD3D3B7E70080044003
S315000022902DE9F0470646174684688C4214D8C36871
S315000022A02344994210D201F500010C1B4FF400683B
S315000022B008F1FF333B4214BF01200020194D4FF0B7
S315000022C0700A4FF009091CE03468A14224D37368F0
S315000022D02344994223D20C1B4FF48058E8E785F833
S315000022E000A085F80790C4F30743AB71C4F3072336
S315000022F06B71E3B22B71304601F0D6FAA7EB0807F3
S3150000230044443FB120B92B7813F0800FE7D1022067
S31500002310BDE8F087BDE8F0870120BDE8F087012021
S31500002320BDE8F0870000024038B584688C420DD8BD
S31500002330C5682544A94209D201F50001091B144CC0
S31500002340247814F0800F0AD1022038BD0468A14217
S315000023501AD345682544A94218D2091BEFE70C4C4D
S31500002360702525700125E571C1F30745A571C1F3F7
S3150000237007256571C9B22171110AE172D2B2A27242
S31500002380637201F091FA38BD012038BD012038BDD5
S315000023900000024012F0070F4ED12DE9F0478146AA
S315000023A00C46154682688A4208D8C16811448C4298
S315000023B004D204F50004A41A00200CE0D9F8002089
S315000023C0944207D3D9F8041011448C4213D2A41AAC
S315000023D0002000E001205E1EDFF86C804FF0700ADE
S315000023E0174F5DB350BB98F8003013F0800F04D13F
S315000023F00220BDE8F0870120EDE788F800A007235A
S3150000240088F80730C4F3074388F80630C4F3072377
S3150000241088F80530E3B288F804303346094A13F8E1
S31500002420011F02F8011FBA42F9D1484601F03CFAF1
S315000024300834083D0836D4E701207047BDE8F08728
S315000024400F000240070002400000024010B40B4B90
S315000024500B4C9C420CD02AB100F11003084C54F8E6
S31500002460233013601030064B43F8201010BC704721
S31500002470044B054C9C42F9D1EDE700BF000000007B
S315000024800080FF1FB83A0000B0380000420900F093
S315000024901F00012303FA00F0014B43F822007047A6
S315000024A000E100E0054B1B68002B04DD013B034AFD
S315000024B01360002B00DD704762B6FCE75C0000206D
S315000024C072B6024A13680133136070475C0000203D
S315000024D010B50F4B53F820301C7C0CB1022010BDF8
S315000024E00C4C54F8200019609A6001221A740222DA
S315000024F0DA85836943F400238361836913F4002F2B
S31500002500FBD00122044900F057FD002010BD00BF9A
S31500002510600000206838000017000300F0B585B0A1
S315000025201B4B53F82040237C13B1022005B0F0BDAD
S3150000253013460A460646174951F8205022600027DE
S31500002540A760012121740220E08594F82A000391F6
S3150000255002930191009705F11C03FFF799FC32469F
S315000025600D4994F82A00FFF7A7FB94F82A00FFF715
S31500002570C1FCAB6943F40023AB61AB6913F4002FD4
S31500002580FBD02B6943F400032B610020CEE700BF8C
S3150000259060000020683800006526000038B5144B3E
S315000025A053F82040134B53F82050EB8D9BB2022B6F
S315000025B016D000221049204600F0FEFC00220F49EA
S315000025C0204600F0F9FCA36923F40023A361A36964
S315000025D013F4002FFBD100232B74AB7C1BB938BD41
S315000025E00023EB85EAE705F12C0000F06FFEF6E725
S315000025F06838000060000020170003001600030082
S3150000260038B5154B53F82040144B53F82050236926
S3150000261023F40003236195F82A00FFF777FC0022D4
S315000026200F49204600F0C8FCA36923F40023A361E8
S31500002630A36913F4002FFBD1AB7C43B9EB8D9BB29E
S31500002640022B04BF0023EB8500232B7438BD05F154
S315000026502C0000F03BFEF1E7683800006000002027
S315000026601600030038B5194B53F82040184B53F8A1
S31500002670205001290DD0236A1BB1626A0121204630
S315000026809847A3688BB901221249284600F094FCAA
S3150000269038BD0123E385FFF7B3FF236A002BF7D08C
S315000026A0626A03212046984738BD216894F82A00BB
S315000026B0FFF738FCA16894F82A00FFF749FC0023CD
S315000026C0A36094F82A00FFF715FC38BD60000020CF
S315000026D0683800001600030008B50E4B53F820308A
S315000026E00D4A52F820001A681B7D43B1012B09D010
S315000026F01378517843EA012100F035FC08BD1378C0
S31500002700037708BD1378517843EA012100F020FCD5
S3150000271008BD00BF600000206838000010B5114BEE
S3150000272053F820305C7C0CB1022010BD0E4C54F8DE
S315000027302040012058745960DA6002221A86A36983
S3150000274043F48023A361A36913F4802FFBD00121F6
S31500002750204600F0B3FC01220449204600F02CFC80
S31500002760002010BD6000002068380000150003003E
S315000027702DE9F04385B0224C54F82040657C1DB10C
S31500002780022005B0BDE8F0830F4606461D4B53F800
S31500002790205094F829004FF00108CDF80C800292E1
S315000027A0CDF804804FF00009CDF800900B4605F1F6
S315000027B01C024946FFF76CFB3246134994F8290080
S315000027C0FFF77AFA94F82900FFF794FB6760C4F8DC
S315000027D00C9084F8118002232386AB6943F480238E
S315000027E0AB61AB6913F4802FFBD00121284600F0C2
S315000027F065FC2B6943F400132B610020C1E700BF81
S315000028006000002068380000D528000038B5154B58
S3150000281053F82050144B53F82040A36923F4802327
S31500002820A361A36913F4802FFBD10021204600F099
S3150000283045FCE36900220D49204600F0BDFBEB7C18
S3150000284043B900236B742B8E9BB2022B04BF00236B
S315000028502B8638BD05F12B0000F038FD0023EB7404
S31500002860EFE700BF60000020683800001500030095
S3150000287038B5164B53F82040154B53F82050A36932
S3150000288023F48023A361A36913F4802FFBD10021D5
S31500002890204600F013FC236923F400132361E36947
S315000028A095F82900FFF732FBEB7C43B92B8E9BB2E0
S315000028B0022B04BF00232B8600236B7438BD05F161
S315000028C02B0000F003FD0023EB74EFE768380000EF
S315000028D06000002070B50546254B53F82040254B77
S315000028E053F82060012904D0238E9BB2022B13D00B
S315000028F070BD01232386FFF7BBFFA3691BB1E26905
S31500002900032120469847736923F0C02323F4F81364
S3150000291043F470237361E7E7A3691BB1E269002101
S3150000292020469847E3688BB92846FFF7A1FFA369BD
S315000029301BB1E269022120469847736923F0C02340
S3150000294023F4F81343F470237361D1E7616894F8B4
S315000029502900FFF7F1FAE16894F82900FFF7F8FA81
S315000029600023E36094F82900FFF7C4FA70BD00BFA6
S31500002970600000206838000010B582B0134B53F891
S315000029802030134A52F820005C681B7D73B1012B7E
S315000029900FD00DF1060100F000FBBDF806302370E4
S315000029A0BDF806301B0A637002B010BDC369237000
S315000029B0FAE70DF1060100F0E7FABDF806302370DC
S315000029C0BDF806301B0A6370EEE700BF600000200A
S315000029D06838000010B5074B53F8203000249C746B
S315000029E093F82830012B02D0FFF798FD10BDFFF7B2
S315000029F06FFD10BD6000002038B50C4B53F8204029
S31500002A0089B10D46227C62B194F82820012A05D0AE
S31500002A1094F82A00FFF7A6FA286004E0A2680A6084
S31500002A2001E000220A60E08D80B238BD600000201F
S31500002A3010B5074B53F820300024DC7493F8283087
S31500002A40012B02D0FFF794FE10BDFFF767FE10BD05
S31500002A506000002038B50C4B53F8204089B10D4674
S31500002A60627C62B194F82820012A05D094F82900E6
S31500002A70FFF778FA286004E0E2680A6001E00022C5
S31500002A800A60208E80B238BD60000020384B53F8B3
S31500002A9020303BB11A7C0AB1022070475B7C0BB137
S31500002AA0022070472DE9F04182B00C46314B53F8B5
S31500002AB0205001A9304B185CFFF7FAF801984FEA4D
S31500002AC0840CB0FBFCFC1FFA8CFC4FEA8C07B0FBB5
S31500002AD0F7F7BC4234BF3F1BE71BB0FBF4F8B8F175
S31500002AE0200F28BF4FF02008B8F1040F38D905266B
S31500002AF04FF0040E324604E0013292B216464245C9
S31500002B0013D806FB04F1B0FBF1F18BB202FB03F321
S31500002B10B0FBF3F39C4234BF1B1BE31ABB42EBD85A
S31500002B201FFA81FC1F46B646E6E7BEF1070F19D924
S31500002B302A6922F0F8520EF1FF331B0603F0F85310
S31500002B4013432B612B6923F4FF5323F01F03CCF3AC
S31500002B500C0C4CEA03032B61002002B0BDE8F081A7
S31500002B604FF0040E2B6943F400332B61E0E700BFFE
S31500002B70600000206838000074380000F0B583B0AB
S31500002B8006460C461546304B53F8207001A92F4BCC
S31500002B90185CFFF78DF8631E04F13301002203F879
S31500002BA0012F8B42FBD12A4B43F82640EB7984F860
S31500002BB02830AB7923752B7A84F829306B7A84F820
S31500002BC02A30384600F08CF929683046FFF75EFF58
S31500002BD02B7983B30122A979384600F093F9297934
S31500002BE0384600F0A6F93B696A7923F4005343EAB4
S31500002BF042333B610025E5852586294604F12B00F5
S31500002C0000F077FB0746294604F12C0000F071FB23
S31500002C10012F16D001280CD00E4B9C572A460E4B7E
S31500002C2053F826102046FFF711FC2046FFF72EFC2E
S31500002C30284603B0F0BD0022A979384600F062F9B3
S31500002C40CDE73846F5E700BF683800007438000065
S31500002C506000002078380000A084FF1FF8B5064603
S31500002C60934B53F82040934B53F8205092492046FB
S31500002C7000F0FEF9B8B140F201632B8695F82830D2
S31500002C80012B79D03046FFF7F3FDAB691BB1EA693A
S31500002C90032128469847636923F0C02323F4F813D9
S31500002CA043F4702363618549204600F0E1F9B8B129
S31500002CB040F203632B8695F82830012B60D030460E
S31500002CC0FFF7D6FDAB691BB1EA6903212846984791
S31500002CD0636923F0C02323F4F81343F4702363617C
S31500002CE07749204600F0C4F9B8B140F204632B8658
S31500002CF095F82830012B47D03046FFF7B9FDAB6970
S31500002D001BB1EA69032128469847636923F0C0236B
S31500002D1023F4F81343F4702363616A49204600F0F4
S31500002D20A7F9B8B140F205632B8695F82830012B38
S31500002D302ED03046FFF79CFDAB691BB1EA69032133
S31500002D4028469847636923F0C02323F4F81343F415
S31500002D50702363615C49204600F065F9E0B95B4980
S31500002D60204600F060F9002847D15949204600F076
S31500002D705AF9002879D1F8BD3046FFF747FD84E7B8
S31500002D803046FFF743FD9DE73046FFF73FFDB6E7C8
S31500002D903046FFF73BFDCFE74E49204600F068F985
S31500002DA00028DCD0434B53F826503046FFF7E4FDAD
S31500002DB02B7DDBB96B6801336B60EB68013BEB6025
S31500002DC0EB682BB9AB691BB1EA6900212846984725
S31500002DD0EB68002BC3D13046FFF718FDAB69002B1B
S31500002DE0BDD0EA69022128469847B8E76B680233E6
S31500002DF06B60EB68023BEB60E2E73749204600F088
S31500002E0037F90028B1D02B4B53F82650AB68002B6E
S31500002E10ABD0274B53F826703046FFF75DFC2B7D71
S31500002E20E3B92B6801332B60AB68013BAB60AB6841
S31500002E30002B9AD12B6A1BB16A6A01212846984752
S31500002E40AB68002B91D100222049384600F0B4F837
S31500002E5001221F49384600F0AFF886E72B68023397
S31500002E602B60AB68023BAB60E1E71C49204600F0F3
S31500002E70FFF800283FF47FAF0E4B53F82640A368B7
S31500002E80002B7FF478AF94F82830012B0BD0304616
S31500002E90FFF7B6FB236A002B3FF46DAF626A02218F
S31500002EA02046984767E73046FFF778FBF2E700BF12
S31500002EB068380000600000201300020011000200C4
S31500002EC010000200120002001500030017000300A4
S31500002ED0160003001500020017000200160002008B
S31500002EE0064B0361064B4361002383610362436221
S31500002EF04FF470328262C362704700BF0400000F55
S31500002F0000C01FC010B40C4602B14C1C022C0BD0E2
S31500002F10836923F0100343EA04138361036923F0F2
S31500002F200053036110BC7047036943F0005303610B
S31500002F30F8E7826901F0FE0322F00202134383617F
S31500002F40836923F0010301F0010119438161704790
S31500002F508369C1F3002223F0804343EA82738361CD
S31500002F60C9B201777047836923F08043C1F3002219
S31500002F7043EA827323F00043C1F3402243EAC2735B
S31500002F808361C9B2017770478369DB0F1B020B802F
S31500002F90C269D2B213430B80704783695B0D03F499
S31500002FA000730B808269D20F43EA02230B80C26949
S31500002FB0D2B213430B80704710B48BB2090C0329AD
S31500002FC01DD00FD9062924D0072916D1816A0124DC
S31500002FD09C4021F4403121EA040102FA03F30B4339
S31500002FE083620AE0012908D1016901249C4021EA93
S31500002FF0040102FA03F30B43036110BC70478169B5
S3150000300001249C4021EA040102FA03F30B43836185
S31500003010F3E7416A01249C4021EA040102FA03F322
S315000030200B434362E9E70B0C032B13D009D9062B9C
S3150000303016D0072B1AD1806A89B2C84000F0010069
S315000030407047012B12D1036988B223FA00F000F011
S3150000305001007047806989B2C84000F001007047DE
S31500003060406A89B2C84000F00100704700207047EE
S315000030700B0C042B13D009D9062B16D0072B1AD10B
S31500003080806A89B2C84000F001007047022B12D155
S31500003090436988B223FA00F000F001007047C06966
S315000030A089B2C84000F001007047406A89B2C84042
S315000030B000F00100704700207047000038B5054653
S315000030C00C460A460949FFF777FF22460849284673
S315000030D0FFF772FF224607492846FFF76DFF224693
S315000030E005492846FFF768FF38BD00BF1B000300EF
S315000030F0180003001A0003001900030008B5002099
S31500003100FFF7ACFD08BD08B50120FFF7A7FD08BD18
S3150000311008B50220FFF7A2FD08BD60B170B50646EE
S315000031200C460025204600F03FF801351834AE4223
S31500003130F8D1002070BD002070470000184B98425F
S3150000314004D0184B98421ED0FF2070470D2911D08D
S3150000315007D90F2914D010D310291FD102F00D0062
S31500003160704721B1012919D142F00200704742F09F
S315000031700100704742F00400704742F008007047B3
S3150000318002F00E00704719B1012904D0FF207047E4
S3150000319002F00B00704702F007007047FF207047EF
S315000031A000A0044000B0044038B5044600686168D9
S315000031B050F82120237A012B3FD0002B3AD0022B46
S315000031C040D0657A2D0105F0100322F050051D430D
S315000031D0A37A9B0103F040032B4323F4E065E37AD3
S315000031E0082B32D01B0203F4E0632B43227BD2036D
S315000031F092B223F478231343627B120402F4702202
S315000032001343A27B0AB143F080732268616842F8D7
S3150000321021302168D1F8C02060680123834022EA6A
S315000032200302E37B83401343C1F8C030E37A012BEA
S3150000323021D038BD22F00202C3E722F0010242F09B
S315000032400202BEE742F00302BBE71B4B5A6802F0DC
S315000032500F02FFF773FFFF280BD0174B5A6822F0B7
S315000032600F025A605A6800F00F001043586000239E
S31500003270B8E70023B6E721694B69227D22B1012A0E
S315000032800AD0012A05D10BE0616801228A4023EAAF
S31500003290020322695361CCE760680122824013432E
S315000032A0656808680122AA4020EA0200627DAA40F9
S315000032B002430A60EDE700BF00800440024A13683B
S315000032C001331360704700BF6C00002010B5044640
S315000032D0FFF7F6F82378DBB2FF2B08D0237801330B
S315000032E0DBB223700024FFF7DDF8204610BD012471
S315000032F0F9E738B504460D46FFF7E2F82570FFF703
S31500003300D1F8002038BD000008B5064A064900205D
S31500003310FFF734FC0023054A1370054A1370054A6B
S31500003320137008BD90380000280200208D0100208F
S315000033301D0200208C01002008B5134B1B78012BC1
S3150000334009D023B1022B11D0032B19D008BD0122BD
S315000033500E4B1A8008BD03220D490020FFF73AFBE9
S315000033600A4B18800222084B1A7008BD0949002032
S31500003370FFF742FB022806D00322034B1A7008BD52
S315000033800022014B1A7008BD1D02002072000020A9
S31500003390820100208801002038B50E4C0E4D2B7896
S315000033A023706B786370A81C00F0FEF8A070281DCF
S315000033B000F0D5F86060802205F10C0104F10800E8
S315000033C000F0B7F805F5867000F0EEF884F888008E
S315000033D038BD00BF9001002074000020234B5B78AD
S315000033E0332B12D0352B3DD0302B00D07047204BDD
S315000033F0412283F80E214F2283F80F214B2283F8B6
S31500003400102101221B4B1A70704700B583B0174973
S3150000341091F8883048688A78009280220831FDF752
S31500003420DFF8154B187078B9114B4E2283F80E2130
S315000034304F2283F80F214B2283F8102101220D4BD6
S315000034401A7003B05DF804FB094B412283F80E2184
S315000034504F2283F80F214B2283F810210022064BBE
S315000034601A70EBE70122054B1A7070479001002095
S31500003470740000201D0200208C0100201C02002088
S3150000348008B51B4B1B78032B23D00FD8DBB1012BC0
S315000034900BD14FF4877217490020FFF7C9FA164B74
S315000034A018800322124B1A7008BD08BD052B1AD0CE
S315000034B0062B07D1FFF770FFFFF790FF00220C4B9A
S315000034C01A7008BD08BD01230B4A1380084A137001
S315000034D008BD0A490020FFF7BDFA0228F1D00522EF
S315000034E0034B1A7008BD0622014B1A7008BD00BFB7
S315000034F08D0100207400002070000020880100204B
S31500003500A0F13003DBB2092B0FD9A0F14103DBB2E6
S31500003510052B07D9A0F16103DBB2052B07D8573875
S31500003520C0B270473738C0B270471846704700209F
S3150000353070479AB1F8B50C46461E01EB4207207853
S31500003540FFF7DEFF05466078FFF7DAFF40EA051071
S3150000355006F8010F0234BC42F1D1F8BD704730B411
S31500003560411EC41D002005460CE0A2F16103DBB23A
S31500003570052B9ABFA2F15703DBB22B4643EA001094
S31500003580A1420FD011F8012FA2F13003DBB2092BB3
S31500003590F4D9A2F14103DBB2052BE6D8A2F1370339
S315000035A0DBB2EBE730BC704730B40178A1F13003F1
S315000035B0DBB2092B0FD9A1F14103DBB2052B02D8EF
S315000035C03739CDB208E0A1F16103DBB2052B03D890
S315000035D05739CDB200E01D464278A2F13003DBB286
S315000035E0092B0FD9A2F14103DBB2052B07D9A2F1B2
S315000035F06103DBB2052B06D8573AD4B203E0373A5B
S31500003600D4B200E01C4644EA0510C0B230BC704794
S3150000361008B572B6021D054B1A604FF0E023C3F8D9
S31500003620080D80F308884368984708BD20020020EB
S3150000363008B50023074A01210748FEF7B9FA002119
S315000036400846FEF7C1FA05490220FFF766FDFCF7BA
S3150000365051FFFEE7240200203485FF1FD885FF1F97
S315000036600A44914200F1FF3300D1704710B511F8BA
S31500003670014B03F8014F9142F9D110BD0000000043
S315000036800000000000000000000000000000000034
S315000036900000000000000000000000000000000024
S315000036A00000000000000000000000000000000014
S315000036B00000000000000000000000000000000004
S315000036C00000000000000000000000000000730081
S315000036D032002100610049004A004B004C004D00B9
S315000036E03D000000240025002B00360031000000BC
S315000036F020000000380039003A00260000003B0098
S3150000370027005A00660037002C002D002E004000CE
S315000037106A006B006C000000000000000000000062
S31500003720000000000000000000FCAC06007E56030E
S31500003730003FAB0100FCAC06007E5603003FAB0128
S3150000374000FCAC06007E5603003FAB010000000003
S315000037500000000000000000000000000000000063
S315000037600000000000FCAC06007E5603003FAB01E3
S3150000377000000000000000000000000000B4C404C7
S31500003780006CDC02B0F3960100B4C404006CDC02E9
S31500003790B0F3960100B4C404006CDC02B0F39601E9
S315000037A00000000000000000000000000000000013
S315000037B0000000000000000000B4C404005A6202C9
S315000037C0B0F39601000000000000000000000000B9
S315000037D000093D0000093D0040420F0000093D0080
S315000037E000093D0040420F0000093D0000093D0070
S315000037F040420F0000000000000000000000000032
S3150000380000000000000000000000000000093D006C
S3150000381000093D0040420F000000000000000000CB
S315000038200000000000000000000000000000000092
S31500003830000000000000004141414141000000003D
S315000038400020202020202020202020004040404032
S315000038504000800048484848003030303030303032
S31500003860303630303000000000A0064000B0064080
S3150000387000C006404A4B4C001F21230000000000F8
S315000038800000080000000010000000140000000006
S3150000389000C201000000000100000000F8B500BFF2
S315000038A0F8B500BF000000005FF800F00986FF1FB2
S315000038B04101020000420102000029010000002A25
S315000038C0010000002B010000002C01000000340163
S315000038D0000000350100000036010000004301022F
S315000038E000003A010000003C010200003D01020018
S315000038F0003E010200003F010200004401020000F8
S31500003900450102000046010200004701020000488E
S315000039100102000049010200004A010200004B01B9
S315000039200200004C010200003701000000380100CF
S3150000393000002D010000002E010000002F010000F4
S3150000394000300100000031010000003201000000DB
S31500003950FD300000073100001131000001010101B6
S3150000396001010000010100000100010000127A00BF
S3150000397000010003010100000001000000000C002E
S31500003980020300000100000000000000000000002B
S315000039900301010000030300010203010006000108
S315000039A00101000001030001010000000000000009
S315000039B00000000000000000000000000000000001
S315000039C000000000000000000000000001010101ED
S315000039D00101010100000000200000003885FF1FE2
S315000039E001010000AC84FF1F4101020000420102F8
S315000039F000004601020000470102000048010200E3
S31500003A00004A010100004B010100004C01010000C9
S31500003A104401020000450102000049010200003C89
S31500003A20010200003D010200003E010200003F01CC
S31500003A30020000430102000029010000002A0100E3
S31500003A4000002B010000002C010000003A010000DC
S31500003A5000370100000038010000003201000000BC
S31500003A603401000000350100000036010000002D81
S31500003A70010000002E010000002F010000003001AF
S31500003A80000000310100000000B004400200000008
S31500003A90000000040000000000000000000000001C
S31500003AA000B0044003000000000000040000000015
S30D00003AB0000000000000000008
S31500003AB838B505460B4A137843F08003137014464D
S31500003AC8237813F0800F05D1AB69B3F1FF3FF7D028
S31500003AD89847F5E7034B1B7813F0710F14BF0120C5
S30D00003AE8002038BD0000024079
S70500000411E5
